:020000040801F1
:10000000783D06200D02010881FA0208F741020836
:1000100081980208EF190108255B04080000000020
:100020000000000000000000000000004D840308F4
:10003000FD84010800000000910901085D2103080A
:1000400027020108270201082702010827020108E8
:1000500027020108270201082702010827020108D8
:1000600027020108270201082702010827020108C8
:1000700027020108270201082702010827020108B8
:1000800027020108270201082702010827020108A8
:100090002702010827020108270201082702010898
:1000A0002702010827020108270201082702010888
:1000B0002702010827020108270201082702010878
:1000C0002702010827020108270201082702010868
:1000D0002702010825300408270201082702010829
:1000E0002702010827020108270201082702010848
:1000F0002702010827020108270201082702010838
:100100002702010827020108270201082702010827
:100110002702010827020108AD250408270201086B
:100120009D6401082702010827020108270201082F
:1001300027020108270201082702010827020108F7
:1001400027020108270201082702010827020108E7
:10015000A564010827020108270201088D30040860
:1001600027020108270201087137030861370308D5
:100170002702010881370308270201080000000058
:1001800027020108270201082702010827020108A7
:100190002702010827020108270201082702010897
:1001A0002702010827020108270201082702010887
:1001B0002702010827020108270201082702010877
:1001C0002702010827020108000000002702010899
:1001D0002702010827020108270201084D6F0308C2
:1001E0002702010827020108270201082702010847
:1001F0002702010827020108DFF80CD000F0C6FA38
:100200000048004765AA0408783D06200648804754
:1002100006480047FEE7FEE7FEE7FEE7FEE7FEE7EB
:10022000FEE7FEE7FEE7FEE71DFD0308F901010812
:1002300072B6704762B67047EFF3108072B67047BF
:1002400080F31088704730BF704720BF7047B0FA06
:1002500080F0704790FAA0F0B0FA80F0704790FA02
:10026000A0F070472DE9F05F0546002092469B46BE
:1002700088460646814640241BE0284641464746BC
:10028000224600F0A7F853465A46C01A914110D3AF
:1002900011461846224600F08EF82D1A67EB010829
:1002A0004F4622460120002100F085F817EB000997
:1002B0004E41201EA4F10104DFDC484631462A46A7
:1002C0004346BDE8F09FC0B2802100F093B840EAF9
:1002D00001039B0703D009E008C9121F08C0042AC4
:1002E000FAD203E011F8013B00F8013B521EF9D2AB
:1002F0007047D2B201E000F8012B491EFBD27047D3
:100300000022F6E710B513460A4604461946FFF7E1
:10031000F0FF204610BD421E12F8013F002BFBD11A
:1003200011F8013B02F8013B002BF9D1704730B5C1
:1003300005462A460B4612F8010B13F8014B08B18B
:10034000A042F8D01CB1002802D06D1CF1E728466D
:1003500030BD10B5044604E00B7800F8013B03B152
:10036000491C521EF8D2204610BD421C10F8011B39
:100370000029FBD1801A7047034611F8012B00F8C1
:10038000012B002AF9D11846704730B50B460146BB
:1003900000202022012409E021FA02F59D4205D324
:1003A00003FA02F5491B04FA02F52844151EA2F1CE
:1003B0000102F1DC30BD202A04DB203A00FA02F110
:1003C000002070479140C2F1200320FA03F3194343
:1003D00090407047202A04DB203A21FA02F00021E5
:1003E000704721FA02F3D040C2F120029140084345
:1003F000194670477F2801D9002208E0064A02EB1F
:100400005002C007127800D1120902F00F02012039
:10041000904008407047000078BB0C082DE9FE4F63
:10042000804681EA0300C00F0C46009021F0004195
:1004300023F00045B8EB0200A94105D24046214611
:1004400090461C460B46024623F00040104347D01E
:10045000270DC7F30A00C3F30A510290401A019016
:1004600040286BDAC3F3130040F4801B00989246D7
:1004700020B10023D2EB030A63EB0B0B0198594622
:10048000C0F140025046FFF796FF06460D46504623
:100490005946019A00F08CF910EB080061410024E4
:1004A00087EA115284EAE7731A4340D0009A62B394
:1004B000019A012A4FEA075215DC001B61EB020189
:1004C0004FF0004202EA0752CDE90042001C41F51C
:1004D000801132462B4600F08CF903B0BDE8F08F56
:1004E00040462146F9E7001B61EB0201001C41F583
:1004F000801300185B412018A2F5001747EB030199
:1005000040EAD570B6196D4111E06D084FEA360624
:1005100045EAC0754FEA0752001B61EB0201001C5F
:1005200041F5801149084FEA300000195141324627
:100530002B4603B0BDE8F04F00F04CB90098012203
:1005400040000023D0EB020263EBE07300982146E9
:100550004FEAE074B8EB000061EB0401E9E783F0D7
:1005600000435BE781F0004158E72DE9FE4F81EA47
:10057000030404F0004421F0004100944FF0000B0C
:1005800023F0004350EA01045ED052EA03045BD03A
:10059000C3F30A54C1F30A552C44A4F2F334019472
:1005A000A0FB0254C1F3130141F48011C3F3130300
:1005B00043F4801301FB024400FB034E840A970AB4
:1005C00044EA815447EA8357A4FB076802958D0AE1
:1005D00005FB07854FEA932C04FB0C542705029D6D
:1005E0004FEA065847EA1637B5EB08056EEB070CDD
:1005F000870E920E47EA811742EA8312A7FB020197
:10060000B6EB0B0164EB00042B0D43EA0C335E18D0
:1006100044EB1C50DA465146E7FB0201C5F31304D4
:100620004FEA0B3343EA14534FEA0432019C43EA86
:100630000603A4F10C040294009CCDE900B400F080
:10064000D8F803B0BDE8F08F00200146F9E72DE9A6
:10065000F04D81EA030404F0004B21F000451446FC
:100660004FF0000A23F0004150EA050220D054EA7E
:1006700001021DD0C5F30A570246C5F31303C1F3A7
:100680001300C1F30A5640F4801543F48013A7EB1E
:100690000608101BD64608F2FD3873EB050002D39E
:1006A00008F1010801E092185B41B8F1000F03DA8C
:1006B00000200146BDE8F08D00204FF48011064671
:1006C00084460EE0171B73EB050705D3121B63EB83
:1006D000050306434CEA010C49084FEA3000921822
:1006E0005B4150EA0107EDD152EA030012D082EAE1
:1006F000040083EA0501084305D0101BAB4106D274
:100700000122002306E000224FF0004302E06FF0D8
:10071000010253101AEB06004CEB085110EB0A00D3
:1007200041EB0B01BDE8F04D00F054B8C1F30A52A3
:10073000C1F3130140F2FF3341F480119A4202DA0F
:1007400000200146704740F233439A42A2F23342FE
:1007500002DC5242FFF73EBEFFF72DBE30B5041E4D
:1007600071F1000404DB4FF00044404264EB0101EE
:10077000141E73F1000405DB1C464FF00043524287
:1007800063EB0403994208BF904230BD064C074D0D
:1007900006E0E06840F0010394E807009847103451
:1007A000AC42F6D3FFF72CFDB8BB0C08D8BB0C0845
:1007B000202A06DBCB17203A41FA02F043EAE07325
:1007C00006E041FA02F3D040C2F120029140084312
:1007D0001946704710B5141E73F1000408DA401C66
:1007E00041F1000192185B411A4301D120F0010050
:1007F00010BD2DE9F04D92469B4611B1B1FA81F240
:1008000002E0B0FA80F220329046FFF7D4FD0446B1
:100810000F4640EA0A0041EA0B0153465A46084394
:1008200013D0114653EA010019D0C8F140025046D6
:10083000FFF7D0FD05460E46504659464246FFF7A3
:10084000BAFD084305D0012004E020463946BDE842
:10085000F08D0020054346EAE0762C4337430A98A2
:100860006305E40AA0EB08000022FD0A44EA4754AD
:100870000A3002D500200146E9E701051019694157
:10088000DDE9084500196941BDE8F04DA2E770B502
:100890008C1810F8015B15F0070301D110F8013B2B
:1008A0002A1106D110F8012B03E010F8016B01F8B2
:1008B000016B5B1EF9D12B0705D40023521E0DD40A
:1008C00001F8013BFAE710F8013BCB1A921C03E058
:1008D00013F8015B01F8015B521EF9D5A142D8D390
:1008E000002070BDEFF3098121B120ED108A3C4951
:1008F0000A6810607047B0EC108A3A490A681060C4
:10090000704772B64EF62250CEF2000040F2FF0160
:10091000C0F200010170002080F3098840F2DC2061
:10092000C2F20200016881F3088821F04BFA40F21C
:100930005E20C2F2020040F25F21C2F202010A7898
:10094000027040F2D420C2F2020040F2D821C2F27A
:1009500002010A680260106880F30988EFF31480CE
:1009600040F0020080F31488BFF36F8FBDE8F04FB2
:100970000FBCBDE8005006BC62B608471A484FF0ED
:1009800080510160704718484FF0805101607047F6
:1009900072B6EFF3098020E9F04F40F2D425C2F29D
:1009A000020529680860744621F00CFA40F25E20C6
:1009B000C2F2020040F25F21C2F202010A78027024
:1009C00040F2D821C2F202010A682A6044F0040E03
:1009D0001068B0E8F04F80F3098862B670470000F5
:1009E000D4020220D802022004ED00E00FB42DE969
:1009F000F041509E4F9D37469DF81800012814D1B4
:100A00009DF818300DF1190202EB0312521C9C469E
:100A10000DF1190303EB0C131B7803EB4303D118FF
:100A2000A8190322FFF795FC23E09DF8180002287F
:100A300014D19DF818300DF1190202EB0312521C6B
:100A40009C460DF1190303EB0C131B7803EB4303D6
:100A5000D118A8190322FFF77CFC0AE09DF8183092
:100A60000DF1190202EB0312511CA8190322FFF722
:100A700070FC00240AE0285D10B920202855274684
:100A8000BC4201DD20202855601CC4B2B442F2DB18
:100A9000BDE8F0015DF814FB08B539E01D48807829
:100AA000012811D1C0021C4988616A460021052035
:100AB00021F0D0F94FF00060174988616A460021A3
:100AC000052021F0C7F923E012488078022803D0DE
:100AD00012480068012812D14FF400600E49886165
:100AE0006A460021012021F0B5F94FF000600A4963
:100AF00088616A460021092021F0ACF908E04FF432
:100B00000060054988616A4600210A2021F0A2F9A7
:100B1000C4E70000DC2E0420002002402004022054
:100B20008AB000F03DFB25F089F809F001FD09A825
:100B300020F0D6F901F0E0FB09A80321002205927C
:100B4000CDE906210890012080210C22E74BCDE958
:100B50000132CDE903100F200023E54AE5A1009002
:100B6000E74820F047FA09A8032100220592CDE9C1
:100B700006210890012009024C22E24BCDE9013206
:100B8000CDE9031006200023DF4AE0A10090E248EF
:100B900020F030FA09A8032100220592CDE90621B0
:100BA00008900220C10240F29912DC4BCDE90132DB
:100BB000CDE9031004200023D94ADAA10090DC48D3
:100BC00020F018FA09A8032100220592CDE9062198
:100BD0000890012040210622D64BCDE90132CDE913
:100BE000031003200023D44AD4A10090D74820F05A
:100BF00001FA09A8032100220592CDE906210890F7
:100C0000104680210C22D24BCDE90132CDE90310F0
:100C100008200023CF4AD0A10090D24820F0EAF962
:100C200009A8032100220592CDE9062108900120A0
:100C300080210C22CC4BCDE90132CDE903101320E9
:100C40000023CA4ACAA10090CC4820F0D3F909ABCE
:100C50000022CBA1CD481FF09DFE14F009F814F03E
:100C600033F842E1CA480078CA49097888427CD002
:100C7000C84800780B283DD2DFE800F03C2E100B6E
:100C8000061A151F2429370009A9C34820F0A0FA25
:100C900030E009A9C14820F09BFA2BE009A9C0481F
:100CA00020F096FA26E009A9BE4820F091FA21E04A
:100CB00009A9BD4820F08CFA1CE009A9BB4820F026
:100CC00087FA17E009A9BA4820F082FA12E009A9C8
:100CD000B84820F07DFA0DE009A9A84820F09CFF53
:100CE00009A9B54820F074FA04E009A9B14820F038
:100CF0006FFA00BF00BFA6480078A6490870A44854
:100D000000780A281DD2DFE800F0E7CB371D058206
:100D10004F9AB26809A8032100220592CDE9062165
:100D20000890022001023322A44BCDE90132CDE923
:100D3000031011200023A24AA2A10090964820F09F
:100D400059F9C9E009A8032100220592CDE906213D
:100D500008900220410266229E4BCDE90132CDE986
:100D600003100B2000239C4A00E0B6E09BA10090FA
:100D70008A4820F03FF9AFE009A80321002205923C
:100D8000CDE906210890022041026622964BCDE96A
:100D90000132CDE9031010200023944A94A1009061
:100DA0007F4820F027F997E009A803210022059247
:100DB000CDE9062108900220C10240F29912914B20
:100DC000CDE90132CDE903100D2000238E4A8FA119
:100DD0000090744820F00EF97EE009A8032100225B
:100DE0000592CDE906210890022041F6E23140F259
:100DF000C9228A4BCDE90132CDE903100D20002331
:100E0000874A88A100906B4820F0F4F864E009A8B4
:100E1000032100220592CDE906210890022001025B
:100E20003322834BCDE90132CDE903101220002398
:100E3000804A81A100905C4820F0DCF84CE009A8D1
:100E4000032100220592CDE906210890022001022B
:100E500033227D4BCDE90132CDE903100C20002374
:100E60007A4A7BA10090514820F0C4F834E009A8E8
:100E7000032100220592CDE90621089002204FF4BB
:100E8000A0618022754BCDE90132CDE903100E201F
:100E90000023734A73A10090454820F0ABF81BE093
:100EA00009A8032100220592CDE90621089002201D
:100EB000010233226E4BCDE90132CDE903100A2045
:100EC00000236C4A6CA100903B4820F093F809A9DC
:100ED0002A4820F05FFA00BF00BF09A800231A4685
:100EE0001946009029481FF099FDBBE618D2022050
:100EF00085500308525443205461736B0000000076
:100F000044D102204C2B06207D500408555342202A
:100F10005461736B00000000782A0620746103207E
:100F2000B9940108446F55617274205461736B0069
:100F3000A0600320E4170220990A01084170702084
:100F40005461736B204C69676874000010070220BD
:100F50007CB20320551901084265657020746173E5
:100F60006B000000A8B1032004D5022045DB010876
:100F7000464C415348205461736B000030D402202A
:100F8000506167655F53454D00000000E418022082
:100F9000DC2E042044000220B4A104200C1A0220FC
:100FA0001835022000E5032088AA04205CB3042041
:100FB000E4C2042028FB0420F053042088A204206B
:100FC0001D8F0108446973706C6179436820546116
:100FD000736B0000E01A0220F19A0108446F576F0A
:100FE000726B205461736B00EC350220798F01081D
:100FF000446973706C617944617461205461736BEE
:1010000000000000D4E503200D910108446F48441E
:10101000617461205461736B00000000FCFB0420CC
:10102000A5900108446F46696C65205461736B009C
:101030005CAB0420798E0108446973706C6179435C
:101040006833205461736B0030B404204992010866
:10105000446F4F747572205461736B00B8C30420E1
:1010600069910108446F4946205461736B00000088
:10107000C454042015F90108477261706820546156
:10108000736B00007047000010B5002400BF00BF64
:10109000FFF7D2F8044600BF01F05AF900BF0F482D
:1010A0000F4908600F48104908601048104908604F
:1010B0001048114908601148114908601148124947
:1010C000086012481249086000BF01F05BF900BFD8
:1010D0002046FFF7B5F800BF00BF10BD851001081E
:1010E00028020220151101082C0202201711010804
:1010F0001C02022019110108200202201B11010804
:10110000240202201D110108300202201F110108D3
:10111000340202207047704770477047704770472D
:1011200000B587B000BF0F48006840F004000D49CB
:1011300008600846006800F00400019000BF00BF8E
:10114000022002900120039002200490059002A941
:1011500005480FF087F80022022103480FF096F9A6
:1011600007B000BD303802400008024010B5044608
:1011700034B1012C07D0022C08D0032C0CD108E08C
:1011800011F000FA0AE011F0CBF907E011F0CEF906
:1011900004E011F0E1F901E0012000BF00BF10BD43
:1011A00010B500F065F826F0CBFA02224FF040416E
:1011B000002017F013FD14F0E7FEFF21002017F0C8
:1011C00045FE0021012017F041FE002017F006FE29
:1011D000244814F0C9FA4FF07F4014F0C5FA0120FA
:1011E00017F0FCFD4FF07F4014F0BEFAFF21002005
:1011F00017F02CFE0021012017F028FE002017F028
:10120000EDFD4FF07F4014F0AFFA4FF07F4108162C
:1012100017F0F8FD144817F0FFFD00F091FD3FF0C6
:10122000D5F84FF07F4014F09FFA3FF039FA13F0F1
:10123000CBFF23F0ABFDFFF773FF002220210B480B
:101240000FF024F923F00CFB0CF048F9012018F002
:1012500021FC18F063F918F0B9F90DF0D3F813F088
:101260005BFD10BDFF0000FFD0000220000802401F
:1012700010B50120FFF77AFF0446204620F0A2FFB8
:1012800010BD000010B58EB004464FF4807006907B
:101290002020009040010790C0000390019400209E
:1012A0000890099005900B900C900D9023F0E8FBAE
:1012B00010B101200EB010BD41F2883269460748D6
:1012C00010F0F6F908B10120F4E74FF4487023F06C
:1012D000A7F908B10120EDE70020EBE7605D0320EE
:1012E00000B58FB00220009023F074FB10B10420F1
:1012F0000FB000BD23F0C4FB08B10120F8E74FF4A4
:1013000080700790312001900020089009904FF0E4
:1013100080700A900020069001200B9000200C9015
:101320000D900E9041F2883201A90C4810F0C0F9DE
:1013300008B10120DCE741F288326946074810F025
:10134000EBFA08B10120D3E74FF4487023F068F9B5
:1013500008B10120CCE70020CAE70000605D03204F
:1013600070B58EB004460D4616464FF48070069058
:10137000032000904FF480600790C0000390019517
:10138000002008904FF080700990002005900A9688
:101390000B900C900D9041F288326946084810F08D
:1013A00087F910B101200EB070BD41F2883221469C
:1013B000034810F03EFA08B10120F4E70020F2E7FC
:1013C000605D03202DE9F0438FB081460D4617463E
:1013D000002401E004F58074AC42FBD9661BBE42D8
:1013E00000D93E462C4605EB07084FF48070079065
:1013F000322001904FF480600890C00004900020DB
:1014000009904FF040700A90002006900C900D90CB
:101410000E9000BF02940B9623F032FB18B101200E
:101420000FB0BDE8F08341F2883201A9124810F0F4
:101430003FF908B10120F3E741F2883249460E48EE
:1014400010F06AFA08B10120EAE741F2883023F08F
:10145000E7F808B10120E3E73444B14404F58070B3
:10146000404502D9A8EB040001E04FF48070064625
:101470004445CFD30020D3E7605D032010B5024977
:10148000886D0EF0FBFC10BD48AF032010B502497B
:10149000C86D0EF0F3FC10BD48AF032010B5044634
:1014A0002146024811F01EFE10BD000048AF032087
:1014B00010B5024811F005FE10BD000048AF032032
:1014C00010B5024811F085FF10BD000048AF0320A1
:1014D00010B500240F481049086000204860002122
:1014E0000D488160C16001614161816100F018F8BF
:1014F0000A49094811F0BEFF00B1012444B94FF474
:101500000061054812F0B1F808B1012400E00024A0
:10151000204610BD001C014048AF0320A8AF0320A7
:1015200030B587B004460D4600BF6A48006840F0F9
:101530008000684908600846006800F0800001905B
:1015400000BF00BF00BF63481438006840F480004B
:101550006049143908600846006800F48000019072
:1015600000BF00BF00BF0846006840F040000860B0
:101570000846006800F04000019000BF00BF00BFB7
:101580000846006840F0080008600846006800F05F
:101590000800019000BF00BF2020029001200390AE
:1015A00004900320059002A94B480EF05BFE012237
:1015B000202149480EF06AFF022003900120049088
:1015C000032005900B2006904002029002A9434898
:1015D0000EF048FEC020029002A93F480EF042FEE5
:1015E0000A2006904FF40060029002A93B480EF0DA
:1015F00039FE0022052167200FF071F867200FF0F7
:1016000061F84FF0B050364948600021344881609D
:10161000C1604FF48061016189004161890081618D
:101620002021C1614FF44031016204214162032154
:1016300081624FF40001C162891001632948284981
:10164000086000BF0846A065846300BF0EF0E5FB9C
:1016500023480EF037FD4FF0B05023494860402139
:10166000214881600021C1604FF4806101618900DF
:101670004161890081612021C1614FF440310162E3
:1016800004214162032181624FF40001C16289108B
:101690000163144878301449086000BF0846E065CB
:1016A000846300BF0EF0B9FB0F480EF00BFD002263
:1016B000062138200FF013F838200FF003F800222D
:1016C000062144200FF00BF844200EF0FBFF07B07A
:1016D00030BD000044380240000C024000180240B7
:1016E00000B003201064024060B003202DE9FC47E5
:1016F000044616461F46DDE90A89002532463B4668
:1017000021460948CDE9008911F004FF00B1012507
:101710003DB90649044811F04EFC08B1012500E02E
:1017200000252846BDE8FC8748AF032000E1F50509
:101730002DE9FC47044616461F46DDE90A890025C7
:1017400032463B4621460948CDE9008911F0CCFFDD
:1017500000B101253DB90649044811F06AFC08B101
:10176000012500E000252846BDE8FC8748AF03209E
:1017700000E1F50510B592B0012005900004069037
:101780000020089002200B9041050C9119210D9129
:101790004FF4D8710E9102210F910921109105A8E3
:1017A00010F04AFF04460CB100BFFEE70FF0C4FE84
:1017B00004460CB100BFFEE70F200090022001900C
:1017C000002002904FF4A05003904FF480500490FA
:1017D0000721684610F0CAFD04460CB100BFFEE7C1
:1017E00012B010BD08B5DFED4C1AB0EE610AF7EE8D
:1017F000001AB0EE611A002100EE901A00910188E3
:10180000ADF8001081788DF802109DF8001089075E
:10181000090C9DF8012002F07F0241EAC2119DF8F7
:10182000022002F07F02114300EE901A0178C1F30A
:101830008301102959D2DFE801F0080D12171C218D
:10184000262B30353A3F44494E53DFED341AB0EE83
:10185000611A4AE0DFED321AB0EE611A45E0DFEDC1
:10186000311AB0EE611A40E0DFED2F1AB0EE611AC6
:101870003BE0DFED2E1AB0EE611A36E0DFED2C1AF8
:10188000B0EE611A31E0DFED2B1AB0EE611A2CE0F8
:10189000DFED291AB0EE611A27E0DFED281AB0EE6D
:1018A000611A22E0F7EE001AB0EE611A1DE0F2EEC6
:1018B000041AB0EE611A18E0DFED211AB0EE611AD9
:1018C00013E0DFED201AB0EE611A0EE0DFED1E1A14
:1018D000B0EE611A09E0DFED1D1AB0EE611A04E006
:1018E000DFED1B1AB0EE611A00BF00BFF8EE601A00
:1018F00061EE211AB7EE002A61EE821AB0EE610A9B
:10190000017801F04001402905D1FFEE001A60EE98
:10191000211AB0EE610A08BD000000005F70893036
:1019200077CC2B3295BFD633BD378635ACC527373C
:1019300017B7D1386F12833A0AD7233CCDCCCC3DB0
:101940000000C84200007A4400401C460050C347D3
:10195000002474490EB502AB002217A119481FF0EC
:1019600019F828E002A800231A46194600901548E5
:101970001FF054F800241CE002201349086002A85C
:10198000082101230022CDE900101146104620F065
:10199000BFFA4FF400300C49086002A80821012367
:1019A0000022CDE900101146104620F0B1FA601C6B
:1019B00084B2142CE0DBD5E7426565705F53454D7A
:1019C0000000000080B103201808024010B5034653
:1019D00007E018780C78A04201D0002010BD5B1CF5
:1019E000491C101EA2F10102F3D10120F6E700BF4D
:1019F000FEE700220B7803804A784FF6FF7303EA74
:101A000002228B781A43428070472DE9F041074645
:101A10000E4614463C203FF069FDF0B23FF08AFDCF
:101A200030123FF087FD3FF04DFD0CB100202080CB
:101A300016E034F02FF905461E2D0ED1384600F081
:101A40004EF905463D203FF051FD3FF03BFD2F4450
:101A500034B120882844208002E02846BDE8F08187
:101A6000E7E710B523F046F808B100F07BF8302026
:101A700000F0C6F810BD10B5312000F0C1F810BD5F
:101A800010B504462146362000F0ACF810BD10B564
:101A9000044614B1204600F0D4F8342000F0B0F829
:101AA00010BD70B50646304600F0B4F8054685B165
:101AB0002946304600F024F80446412C09D0142C65
:101AC00001D1432070BD422C01D1B320FAE720465A
:101AD000F8E77019FFF7DBFFF4E710B5044620467E
:101AE00000F0AFF820785C2802D020782F2803D1AE
:101AF0000021642000F00AF9322000F081F810BDC6
:101B00002DE9F04105460F460026012429E001E0B9
:101B1000601CC4B2285D5C2805D0285D2F2802D047
:101B2000285D0028F4D1285D10B1601CC4B200E02B
:101B30000024A819FFF7D1FF064684B1BC420ED09D
:101B4000412E0AD0142E02D14320BDE8F081422E4E
:101B500001D1B320F9E73046F7E7264601E03046E9
:101B6000F3E7D4E710B522203FF0C0FC322006F0A6
:101B7000CFFC3FF0B1FC04463FF0A4FC204610BD72
:101B80002DE9F0413FF0A8FC04463FF0A5FC0546D6
:101B90003FF0A2FC06463FF09FFC07463FF092FC58
:101BA00044EA052040EA064040EA0760BDE8F081CB
:101BB00010B504460C203FF099FC20463FF0BAFCDB
:101BC000FFF7DEFF10BD70B504460A203FF08EFC23
:101BD00020463FF0AFFC3FF07FFC05463FF072FC33
:101BE000284670BD70B505460C4628463FF07EFC81
:101BF00020463FF09FFC3FF065FC34F04BF870BD91
:101C000010B5044620463FF071FC3FF05BFC34F019
:101C100041F810BD0246114600E0491C0878002832
:101C2000FBD100E0491E08785C2804D008782F28F2
:101C300001D09142F6D1914200D0491C881AC0B21D
:101C400070472DE9F041064601203FF04FFC3FF080
:101C500043FC43282BDA2B20FFF7B5FF102826DAA8
:101C60002F203FF043FC00203FF064FC3220FFF7C0
:101C7000C7FF0446142C1AD1CF20FFF7A4FF044657
:101C8000ACB14C20FFF794FF00EB042739464C2001
:101C900000F03CF85020FFF78BFF00EB042739469B
:101CA000502000F033F80021702000F02FF82F2092
:101CB0003FF01CFC357828463FF03CFC09E0761CE0
:101CC00035785C2D01D02F2D00D1002528463FF01E
:101CD00031FC002DF3D13FF0F5FBBDE8F08170B58C
:101CE00004462D203FF002FC3FF0F6FB0646054679
:101CF00046B100BF20783FF01DFC641C701EC0B2CE
:101D0000061EF7D13FF0DEFB284670BD70B50546D4
:101D10000C460D203FF0EAFB28463FF00BFCE0B2FA
:101D20003FF008FCC4F307203FF004FCC4F3074075
:101D30003FF000FC200E3FF0FDFB3FF0C3FB70BD09
:101D400008B500BF2548006840F00400234908603A
:101D50000846006800F00400009000BF00BF0320A8
:101D600002230122202100901D4813F0D3F9012203
:101D700020211B480EF08AFB00BF1848006840F085
:101D80000400164908600846006800F0040000904E
:101D900000BF00BF03200123002210210090104843
:101DA00013F0B8F900BF0D48006840F001000B497E
:101DB00008600846006800F00100009000BF00BF06
:101DC00003200023012210210090064813F0A2F9FD
:101DD00017F0C4FB17F0D4FB08BD000030380240F8
:101DE00000080240000002402DE9FF4705460E466C
:101DF00017469846DDF83090544C201603214FF4D6
:101E0000F5737F22CDE90245CDE900104FF4DC7176
:101E1000012006F0CBFE201603214FF4F573FF22BC
:101E2000CDE90246CDE900104FF4DC71812006F0C7
:101E3000BDFE201603214FF4F57340F27F12CDE969
:101E40000247CDE900104FF4DC7140F2011006F0BA
:101E5000ADFE201603214FF4F573C20DCDE9024803
:101E6000CDE900104FF4DC7140F2811006F09EFEC7
:101E7000201603214FF4F57340F27F22CDE9024989
:101E8000CDE900104FF4DC7140F2012006F08EFE27
:101E9000E87958BB2B46002240F2BD112320009464
:101EA00014F0DAFF3346002240F2BD119020009476
:101EB00014F0D2FF3B46002240F2BD1140F2271041
:101EC000009414F0C9FF4346002240F2BD114FF4C4
:101ED000D370009414F0C0FF4B46002240F2BD11B5
:101EE00040F22120009414F0B7FF2DE0E87901289A
:101EF0002AD12B46002240F2BD112320009414F079
:101F0000ABFF3346002240F2BD119920009414F03B
:101F1000A3FF3B46002240F2BD114FF491700094A4
:101F200014F09AFF4346002240F2BD114FF4D270E4
:101F3000009414F091FF4B46002240F2BD114FF483
:101F40000770009414F088FFBDE8FF8700A300FF2E
:101F50002DE9FC5F06460F4691469846DDE90CAB3D
:101F60000E9D4FF4DC7465B901200321CDE900100A
:101F700004F1320083B27F222146012006F0ECFDFD
:101F80000BE000200321CDE9001004F1320083B200
:101F90007F222146012006F0DFFD012D0CD101201A
:101FA0000321CDE9001004F1320083B2FF22214663
:101FB000812006F0D1FD0BE000200321CDE90010C7
:101FC00004F1320083B2FF222146812006F0C4FDD5
:101FD000022D0ED101200321CDE9001004F13200C1
:101FE00083B240F27F12214640F2011006F0B4FDA8
:101FF0000DE000200321CDE9001004F1320083B28E
:1020000040F27F12214640F2011006F0A5FD032D9B
:102010000ED101200321CDE9001004F1320083B27A
:1020200040F2FF12214640F2811006F095FD0DE0CE
:1020300000200321CDE9001004F1320083B240F208
:10204000FF12214640F2811006F086FD042D0ED1CC
:1020500001200321CDE9001004F1320083B240F2E7
:102060007F22214640F2012006F076FD0DE000209F
:102070000321CDE9001004F1320083B240F27F2247
:10208000214640F2012006F067FD002E5CD125B903
:102090006049081616F0B6FE03E05F49081616F010
:1020A000B1FE601D81B200233A461C2013F07EFF72
:1020B000012D04D15749081616F0A4FE03E0564935
:1020C000081616F09FFE601D81B200234A4690203C
:1020D00013F06CFF022D04D14E49081616F092FE43
:1020E00003E04D49081616F08DFE601D81B20023F5
:1020F000424640F2271013F059FF032D04D1454901
:10210000081616F07FFE03E04349081616F07AFE23
:10211000601D81B2002352464FF4D37013F046FF86
:10212000042D04D13B49081616F06CFE03E03A4931
:10213000081616F067FE601D81B200235A4640F271
:10214000162013F033FF5DE0012E5BD125B9314934
:10215000081616F057FE03E02F49081616F052FE37
:10216000601D81B200233A46142013F01FFF012D99
:1021700004D12849081616F045FE03E02649081642
:1021800016F040FE601D81B200234A46992013F0EC
:102190000DFF022D04D11F49081616F033FE03E08F
:1021A0001D49081616F02EFE601D81B2002342461E
:1021B0004FF48C7013F0FAFE032D04D11549081664
:1021C00016F020FE03E01449081616F01BFE601DF1
:1021D00081B2002352464FF4D27013F0E7FE042D73
:1021E00004D10C49081616F00DFE03E00A49081642
:1021F00016F008FE601D81B200235A464FF40770A6
:1022000013F0D4FE4FF07F41081616F0FBFDBDE839
:10221000FC9F000000A300FF800000FF10B500F04D
:1022200003F900F003F800F0F3F810BD70B50026D4
:102230000020184908801849088018490860184982
:1022400008601849086018490860184908600024A7
:1022500000BFFDF7F1FF064600BF00250BE00020A0
:102260001049086000F074F800F08CF80D48006820
:102270000444681C85B2002DF1D00C480460002095
:10228000084908600849086000BF3046FDF7D8FFDC
:1022900000BF70BDFC010220FE01022000020220EE
:1022A000040202200C020220100202200802022076
:1022B00001460846044A1268904203D9024A12684D
:1022C000801A00E0002070470802022070B5002547
:1022D00000BFFDF7B1FF054600BF0648046800BF18
:1022E0002846FDF7ADFF00BF2046FFF7E1FF064699
:1022F000304670BD0C02022070B50025FFF7E6FFE6
:10230000044600BFFDF798FF054600BF00200449C2
:10231000086000BF2846FDF793FF00BF204670BD50
:102320000C02022070B5002500BFFDF785FF0546B1
:1023300000BF0648046800BF2846FDF781FF00BFC4
:102340002046FFF7B5FF0646304670BD100202205A
:1023500010B509480088401C0749088007480088D4
:1023600018B900F09DF80649086004480088401C30
:102370000249088010BD0000FC010220FE0102207D
:102380000002022010B50F480088401E0D49088049
:1023900008460088A0B900F083F80B490860084699
:1023A00000680A490968441A09480068A04201D235
:1023B0000748046007480068A04201D2054804604D
:1023C00010BD0000FE0102200402022000020220D3
:1023D0000C0202201002022010B5002400BF00BF32
:1023E000FDF72AFF044600BFFFF7B2FF00BF102130
:1023F000064817F047FA00BFFFF7C4FF00BF2046AA
:10240000FDF71EFF00BF00BF10BD0000D0CF0320AE
:1024100010B5FFF7E1FF10BD00BFFEE70020014946
:10242000086070471002022010B5002002490860C1
:1024300000F00AF810BD0000F80102200149086010
:1024400070470000F801022070B51148046804F0DC
:10245000010030B104F0020018B10E480C49091F08
:1024600008600120FEF782FE05460B48006840F038
:1024700080700949086000200849486008460068E3
:1024800040F0010008602846FFF7D8FF70BD00004B
:10249000B41F00E055CEACC5FCED00E0001000E03C
:1024A0000149486870470000001000E070B502461E
:1024B0000C46FF25FF2309E012F8010B80EA050115
:1024C0000648405C80EA03050548435C201EA4F1F1
:1024D0000106F4B2F0D143EA052070BD78B90C08CA
:1024E00078BA0C08002070470020704770B5054688
:1024F0000E460024024830F0B8FE002070BD0000F7
:102500000814062078B500220024009412244E4DB1
:102510002C7034246C700124AC700024EC702C718D
:1025200001246C712C460025C4F8065065812823CF
:10253000002013E0454C245C2E2C05D11446551C7C
:10254000EAB20DF8040007E0404C245C24B91446BC
:10255000551CEAB20DF80400441CE0B2984201DABE
:10256000032AE7DB0323002022E01DF80040241AA1
:10257000E4B20DF8004001280DDD441E1DF80450A2
:10258000841E1DF804402C441DF800502C1BE4B29E
:102590000DF800400AE0002808DD1DF80050441E38
:1025A0001DF804402C1BE4B20DF80040441CE0B2BE
:1025B0009842DADB002005E01DF800401C44E3B23D
:1025C000441CE0B20328F7DB00221546521C1DF81C
:1025D00005401D4D2C73002015E01C4C245C2E2C56
:1025E00009D11446551CEAB21DF8045000F10D043F
:1025F000154E355505E0154C255C00F10D04124EC5
:102600003555441CE0B29842E7DB00F10D04E1B21D
:1026100000240D4D6C5400260C464D1CE9B20A4DA9
:102620002E5501260C464D1CE9B2074D2E550026AD
:102630000C464D1CE9B2044D2E5501260C464D1C8E
:10264000E9B2014D2E5578BD10CF0320413804204A
:1026500000B527F09DFA27F05FFA03480CF0F8F96F
:1026600001200149487500BD92A6032000B503462C
:10267000F0EE402AB7EE000AB0EE403A93F823009D
:1026800000282ADD2520C05C401CC1B22520C15491
:102690002521C85C35F03EF9B0EE403A2620C05CFA
:1026A00001280AD1986A00EE100AF1EE430A00EE02
:1026B000A20A10EE100A986207E0986A00EE100A6B
:1026C00003EE220A10EE100A98622521C85C996A6E
:1026D00000EE101A35F052F922E02620C05C0128E5
:1026E0000CD1986A00EE900AB0EE620AB2EE041ABB
:1026F00010EE810A10EE100A98620BE0986A00EE64
:10270000900AB0EE620AB2EE041A00EE810A10EEF0
:10271000100A98622420C05C401CC1B22420C1541D
:1027200001212720C15400BD10B540F20C410248E0
:10273000FDF7E6FD10BD000076C703202DE9F04F40
:10274000ADF2945D80460D4691461F46002640F24C
:102750007C5102A8FDF7D4FD0E2205F130010DF2E7
:102760008450FDF7B4FD2E7F00241AE10020C4EB55
:10277000C40101EB441102AA02EB41010871C4EB50
:10278000C40101EB441102EB41018870C4EBC401A8
:1027900001EB441102EB4101C870FE484078C4EBE4
:1027A000C40101EB441102EB4101C871287AC4EB6A
:1027B000C40101EB441102EB41010872C4EBC400F7
:1027C00000EB441002A901EB40000930C4EBC40146
:1027D00001EB441102EB4101097A4454092C66DAF9
:1027E000288EC4EBC40101EB441102EB41010886C1
:1027F0006A8EBDF88C050830611C00FB012081B297
:10280000C4EBC40000EB441002AA02EB4000418676
:10281000A98EC4EBC40000EB441002EB400081869B
:10282000EA8EBDF88C050830611C00FB012081B2E6
:10283000C4EBC40000EB441002AA02EB4000C186C6
:10284000E88FC4EBC40101EB441102EB4101C887DE
:102850004020425BBDF88C050830611C00FB012064
:1028600081B2C4EBC40000EB441002AA02EB4000AA
:10287000A0F84010B5F84400C4EBC40101EB4411CA
:1028800002EB4101A1F844004620425BBDF88C05F3
:102890000830611C00FB012081B2C4EBC40000EBD6
:1028A000441002AA02EB4000A0F8461077E0288E00
:1028B000BDF88E150844C4EBC40101EB441102AA13
:1028C00002EB410108866A8EBDF88C150831A4F12F
:1028D000080001FB002081B2C4EBC40000EB4410EF
:1028E00002AA02EB40004186A88EBDF88E1508446E
:1028F00081B2C4EBC40000EB441002EB40008186BF
:10290000EA8EBDF88C150831A4F1080001FB002007
:1029100081B2C4EBC40000EB441002AA02EB4000F9
:10292000C186E88FBDF88E150844C4EBC40101EBE5
:10293000441102EB4101C8874020425BBDF88C1571
:102940000831A4F1080001FB002081B2C4EBC400EF
:1029500000EB441002AA02EB4000A0F84010B5F8CA
:102960004400BDF88E150844C4EBC40101EB4411CA
:1029700002EB4101A1F844004620425BBDF88C15F2
:102980000831A4F1080001FB002081B2C4EBC400AF
:1029900000EB441002AA02EB4000A0F84610601CB5
:1029A000C4B2BC42FFF6E2AE4E2229467A48FDF799
:1029B0008EFC092E16DA4FF07F400116CDE900108B
:1029C000BDF88AA5BDF88CC50CF1080C0CFB06AC53
:1029D0001FFA8CF3BDF888255146BDF8840506F032
:1029E00011F91FE04FF07F400116B24606EBDA7C8A
:1029F0004FEA6C0BCDE90010BDF88AE5BDF88CC537
:102A00000CF1080C0CFB0BEC1FFA8CF3BDF888C51D
:102A1000BDF88EB5DC441FFA8CF27146BDF8840512
:102A200006F0F0F800BF0024E1E00120C4EBC4018F
:102A300001EB441102AA02EB41010871C4EBC4018D
:102A400001EB441102EB410188700020C4EBC4018A
:102A500001EB441102EB4101C870C4EBC40101EB6E
:102A6000441102EB410148710120C4EBC40101EBA8
:102A7000441102EB41018871C4EBC40000EB441027
:102A800002A901EB40000930C4EBC40101EB441181
:102A900002EB4101097A415C2A7A05F10900805C68
:102AA000814217D10120C4EBC40101EB441102AAF9
:102AB00002EB410148710020C4EBC40101EB441159
:102AC00002EB41018871C4EBC40101EB441102EB3C
:102AD0004101087199F80000E0B9C4EBC40303EBAD
:102AE00044130DF1080C0CEB4303B3F84620C4EB80
:102AF000C40303EB44130CEB4303B3F84410C4EBDF
:102B0000C40303EB44130CEB43004FF07F4314F07A
:102B100051FB6AE0C4EBC40000EB441002A901EBD6
:102B20004000C08EC4EBC40C0CEB441C8A460AEB7C
:102B30004C0C0090BCF83430C4EBC40C0CEB441CBF
:102B40000AEB4C0CBCF83220C4EBC40C0CEB441C5C
:102B50000AEB4C0CBCF83010C4EBC40C0CEB441C5E
:102B60000AEB4C0006F0BEF80A48407808BB4FF06C
:102B70007F40C4EBC40303EB4413D4460CEB430384
:102B80000090B3F84020C4EBC40303EB44130CEBF8
:102B9000430303E0DC2E0420402E0420D98FC4EB35
:102BA000C40303EB44130CEB4300012313F0EAFAD4
:102BB0001BE0C4EBC40303EB44130DF1080C0CEB56
:102BC0004303B3F84620C4EBC40303EB44130CEBFC
:102BD0004303B3F84410C4EBC40303EB44130CEBFE
:102BE00043004FF07F4314F0E5FA601CC4B2BC42CE
:102BF000FFF61BAF092E14DA4FF0FF300090BDF83E
:102C00008AA5BDF88CC50CF1080C0CFB06AC1FFAAC
:102C10008CF3BDF888255146BDF8840506F03CF8D4
:102C20001DE04FF0FF30B24606EBDA7C4FEA6C0B4A
:102C30000090BDF88AE5BDF88CC50CF1080C0CFBC2
:102C40000BEC1FFA8CF3BDF888C5BDF88EB5DC44DB
:102C50001FFA8CF27146BDF8840506F01DF80020BD
:102C600012F06EFA80464B460D4A294640460097C0
:102C70001AF000FAB8F1030F03D0B8F1010F7FF496
:102C8000D2AE2CF00BFA4B46054A29464046009737
:102C90001AF0F0F938F076FF0DF2945DBDE8F08F90
:102CA000402E04202DE9F04FADF5497D80460D46BC
:102CB00091461E4600274FF4437102A8FDF720FB02
:102CC0000E2205F13001C5A8FDF701FB2F7F00247E
:102CD0001FE10020C4EBC40101EB441102AA02EB86
:102CE00041010871C4EBC40101EB441102EB410145
:102CF0008870C4EBC40101EB441102EB4101C870C0
:102D0000FE484078C4EBC40101EB441102EB4101E1
:102D1000C871287AC4EBC40101EB441102EB4101F4
:102D20000872C4EBC40000EB441002A901EB4000A0
:102D30000930C4EBC40101EB441102EB4101097AF3
:102D40004454B4EB660F66DA288EC4EBC40101EB81
:102D5000441102EB410108866A8EBDF81C0308305D
:102D6000611C00FB012081B2C4EBC40000EB4410E5
:102D700002AA02EB40004186A98EC4EBC40000EB1E
:102D8000441002EB40008186EA8EBDF81C03083037
:102D9000611C00FB012081B2C4EBC40000EB4410B5
:102DA00002AA02EB4000C186E88FC4EBC40101EB2C
:102DB000441102EB4101C8874020425BBDF81C036F
:102DC0000830611C00FB012081B2C4EBC40000EBA1
:102DD000441002AA02EB4000A0F84010B5F84400ED
:102DE000C4EBC40101EB441102EB4101A1F8440022
:102DF0004620425BBDF81C030830611C00FB01202B
:102E000081B2C4EBC40000EB441002AA02EB400004
:102E1000A0F846107BE0288EBDF81E130844C4EBD2
:102E2000C40101EB441102AA02EB410108866A8E3B
:102E3000BDF81C030830611CA1EB660100FB0120FA
:102E400081B2C4EBC40000EB441002AA02EB4000C4
:102E50004186A88EBDF81E13084481B2C4EBC4009D
:102E600000EB441002EB40008186EA8EBDF81C03A3
:102E70000830611CA1EB660100FB012081B2C4EBAC
:102E8000C40000EB441002AA02EB4000C186E88FA8
:102E9000BDF81E130844C4EBC40101EB441102EB5E
:102EA0004101C8874020425BBDF81C030830611C0B
:102EB000A1EB660100FB012081B2C4EBC40000EB72
:102EC000441002AA02EB4000A0F84010B5F84400FC
:102ED000BDF81E130844C4EBC40101EB441102EB1E
:102EE0004101A1F844004620425BBDF81C030830B4
:102EF000611CA1EB660100FB012081B2C4EBC400A0
:102F000000EB441002AA02EB4000A0F84610601C3F
:102F1000C4B2B442FFF6DDAE4E2229467848FDF732
:102F2000D6F9B7EBA60F16DA4FF07F400116CDE9C0
:102F30000010BDF81AA3BDF81CC30CF1080C0CFB63
:102F400007AC1FFA8CF3BDF818235146BDF81403E3
:102F500005F058FE1FE04FF07F400116BA4607EB20
:102F6000DA7C4FEA6C0BCDE90010BDF81AE3BDF82E
:102F70001CC30CF1080C0CFB0BEC1FFA8CF3BDF816
:102F800018C3BDF81EB3DC441FFA8CF27146BDF8BD
:102F9000140305F037FE00BF00249EE00120C4EBBF
:102FA000C40101EB441102AA02EB41010871C4EB18
:102FB000C40101EB441102EB410188700020C4EB15
:102FC000C40101EB441102EB4101C870C4EBC40120
:102FD00001EB441102EB410148710120C4EBC40133
:102FE00001EB441102EB41018871C4EBC40000EB1A
:102FF000441002A901EB40000930C4EBC40101EB0D
:10300000441102EB4101097A415C2A7A05F1090079
:10301000805C814217D10120C4EBC40101EB441153
:1030200002AA02EB410148710020C4EBC40101EB8C
:10303000441102EB41018871C4EBC40101EB44115E
:1030400002EB41010871C4EBC40000EB441002A97B
:1030500001EB4000C08EC4EBC40C0CEB441C8A4650
:103060000AEB4C0C0090BCF83430C4EBC40C0CEBF5
:10307000441C0AEB4C0CBCF83220C4EBC40C0CEB27
:10308000441C0AEB4C0CBCF83010C4EBC40C0CEB29
:10309000441C0AEB4C0005F025FE99F80000D0B95D
:1030A000C4EBC40303EB4413D4460CEB4303B3F863
:1030B0004620C4EBC40303EB44130CEB4303B3F807
:1030C0004410C4EBC40303EB44130CEB43004FF078
:1030D0007F4314F0F5FB601CC4B2B442FFF65EAF50
:1030E000B7EB660F1ADA4FF0FF300090BDF81AA365
:1030F000BDF81CC30CF1080C04E00000DC2E042019
:103100008CFA04200CFB07AC1FFA8CF3BDF81823D3
:103110005146BDF8140305F0BFFD1DE04FF0FF3030
:10312000BA4607EBDA7C4FEA6C0B0090BDF81AE365
:10313000BDF81CC30CF1080C0CFB0BEC1FFA8CF354
:10314000BDF818C3BDF81EB3DC441FFA8CF27146FB
:10315000BDF8140305F0A0FD002011F0F1FF80463A
:103160004B460E4A2946404600961AF01BF8B8F125
:10317000030F03D0B8F1010F7FF40EAF2BF0E6FF81
:103180004B46064A2946404600961AF00BF838F09E
:10319000ABFE0DF5497DBDE8F08F00008CFA0420F0
:1031A0002DE9F047ADF5367D80460D4616461F46A3
:1031B0004FF000094FF4307102A8FDF7A1F8002488
:1031C00039E00020C4EBC40101EB441102AA02EB78
:1031D00041010871C4EBC40101EB441102EB410150
:1031E0008870C4EBC40101EB441102EB4101C870CB
:1031F000F3484078C4EBC40101EB441102EB4101F8
:10320000C871287AC4EBC40101EB441102EB4101FF
:103210000872C4EBC40000EB441002A901EB4000AB
:103220000930C4EBC40101EB441102EB4101097AFE
:103230004454601CC4B2BC42C3DB4E222946E14860
:10324000FDF745F800BF0E2205F13001B2A8FDF7E9
:103250003EF895F81C904FF07F400116CDE9001024
:10326000BDF8CEA2BDF8D0C20CF1080C0CFB09AC25
:103270001FFA8CF3BDF8CC225146BDF8C80205F008
:10328000C1FC002454E10120C4EBC40101EB441152
:1032900002AA02EB41010871C4EBC40101EB441125
:1032A00002EB410188700020C4EBC40101EB441122
:1032B00002EB4101C870C4EBC40101EB441102EB05
:1032C000410148710120C4EBC40101EB441102EB40
:1032D00041018871288EC4EBC40101EB441102EB5B
:1032E000410108866A8EBDF8D0020830611C00FBDF
:1032F000012081B2C4EBC40000EB441002AA02EB2F
:1033000040004186A98EC4EBC40000EB441002EBE0
:1033100040008186EA8EBDF8D0020830611C00FBB7
:10332000012081B2C4EBC40000EB441002AA02EBFE
:103330004000C186E88FC4EBC40101EB441102EBED
:103340004101C8874020425BBDF8D0020830611CB3
:1033500000FB012081B2C4EBC40000EB441002AAC0
:1033600002EB4000A0F84010B5F84400C4EBC401E3
:1033700001EB441102EB4101A1F844004620425BFD
:10338000BDF8D0020830611C00FB012081B2C4EB03
:10339000C40000EB441002AA02EB4000A0F8461063
:1033A000C4EBC40000EB441002A901EB400009305B
:1033B000C4EBC40101EB441102EB4101097A415C09
:1033C0002A7A05F10900805C814217D10120C4EB03
:1033D000C40101EB441102AA02EB41014871002033
:1033E000C4EBC40101EB441102EB41018871C4EB51
:1033F000C40101EB441102EB41010871C4EBC400AC
:1034000000EB441002A901EB4000C08EC4EBC40CD9
:103410000CEB441C8A460AEB4C0C0090BCF8343090
:10342000C4EBC40C0CEB441C0AEB4C0CBCF8322073
:10343000C4EBC40C0CEB441C0AEB4C0CBCF8301075
:10344000C4EBC40C0CEB441C0AEB4C0005F04AFC2A
:103450003078012810D03078042801D1012000E014
:1034600000203178052901D1012100E00021084325
:1034700010B9307808281CD1C4EBC40303EB441303
:103480000DF1080C0CEB4303B3F84620C4EBC40366
:1034900003EB44130CEB4303B3F84410C4EBC40335
:1034A00003EB44130CEB43004FF07F4314F0ECFAB2
:1034B0003CE043484078E8B94FF07F40C4EBC40398
:1034C00003EB44130DF1080C0CEB43030090B3F82D
:1034D0004020C4EBC40303EB44130CEB4303D98F2C
:1034E000C4EBC40303EB44130CEB4300012313F0C0
:1034F000A9FA1BE0C4EBC40303EB44130DF1080C61
:103500000CEB4303B3F84620C4EBC40303EB4413B2
:103510000CEB4303B3F84410C4EBC40303EB4413B4
:103520000CEB43004FF07F4314F0AEFA601CC4B2C2
:10353000BC42FFF6A8AE4FF0FF300090BDF8CEA21F
:10354000BDF8D0C20CF1080C0CFB09AC1FFA8CF3CF
:10355000BDF8CC225146BDF8C80205F09DFB002005
:1035600011F0EEFD80463346164A29464046009744
:103570001BF0C4F8B8F1030F03D0B8F1010F7FF4CA
:1035800062AE3078C0EBC00101EB40100E4901EB98
:10359000400009303178C1EBC10202EB41110A4A07
:1035A00002EB4101097A405C0549487025F09CF81E
:1035B0002BF0B0FF15F032FE0DF5367DBDE8F0873B
:1035C000DC2E0420ACC1042030BC04202DE9F047DF
:1035D000ADF5367D80460D4616461F464FF0000974
:1035E0004FF4307102A8FCF78BFE002439E0002074
:1035F000C4EBC40101EB441102AA02EB41010871C2
:10360000C4EBC40101EB441102EB41018870C4EB2F
:10361000C40101EB441102EB4101C870EB48407852
:10362000C4EBC40101EB441102EB4101C871287ADB
:10363000C4EBC40101EB441102EB41010872C4EB7D
:10364000C40000EB441002A901EB40000930C4EBB8
:10365000C40101EB441102EB4101097A4454601C9E
:10366000C4B2BC42C3DB4E222946D948FCF72FFE28
:1036700000BF0E2205F13001B2A8FCF728FE95F834
:103680001C904FF07F400116CDE90010BDF8CEA28E
:10369000BDF8D0C20CF1080C0CFB09AC1FFA8CF37E
:1036A000BDF8CC225146BDF8C80205F0ABFA0024A3
:1036B00054E10120C4EBC40101EB441102AA02EB66
:1036C00041010871C4EBC40101EB441102EB41015B
:1036D00088700020C4EBC40101EB441102EB4101EE
:1036E000C870C4EBC40101EB441102EB4101487105
:1036F0000120C4EBC40101EB441102EB41018871CC
:10370000288EC4EBC40101EB441102EB4101088691
:103710006A8EBDF8D0020830611C00FB012081B226
:10372000C4EBC40000EB441002AA02EB4000418647
:10373000A98EC4EBC40000EB441002EB400081866C
:10374000EA8EBDF8D0020830611C00FB012081B276
:10375000C4EBC40000EB441002AA02EB4000C18697
:10376000E88FC4EBC40101EB441102EB4101C887AF
:103770004020425BBDF8D0020830611C00FB0120F4
:1037800081B2C4EBC40000EB441002AA02EB40007B
:10379000A0F84010B5F84400C4EBC40101EB44119B
:1037A00002EB4101A1F844004620425BBDF8D00283
:1037B0000830611C00FB012081B2C4EBC40000EBA7
:1037C000441002AA02EB4000A0F84610C4EBC4006B
:1037D00000EB441002A901EB40000930C4EBC40126
:1037E00001EB441102EB4101097A415C2A7A05F1AF
:1037F0000900805C814217D10120C4EBC40101EBB8
:10380000441102AA02EB410148710020C4EBC4013B
:1038100001EB441102EB41018871C4EBC40101EBDF
:10382000441102EB41010871C4EBC40000EB4410E9
:1038300002A901EB4000C08EC4EBC40C0CEB441C8D
:103840008A460AEB4C0C0090BCF83430C4EBC40C34
:103850000CEB441C0AEB4C0CBCF83220C4EBC40C3F
:103860000CEB441C0AEB4C0CBCF83010C4EBC40C41
:103870000CEB441C0AEB4C0005F034FA30780128BC
:1038800010D03078042801D1012000E000203178E8
:10389000052901D1012100E00021084310B9307849
:1038A00008281CD1C4EBC40303EB44130DF1080C2E
:1038B0000CEB4303B3F84620C4EBC40303EB4413FF
:1038C0000CEB4303B3F84410C4EBC40303EB441301
:1038D0000CEB43004FF07F4314F0D6F83CE03B483C
:1038E0004078E8B94FF07F40C4EBC40303EB4413C6
:1038F0000DF1080C0CEB43030090B3F84020C4EB2F
:10390000C40303EB44130CEB4303D98FC4EBC40390
:1039100003EB44130CEB4300012313F093F81BE07B
:10392000C4EBC40303EB44130DF1080C0CEB43038D
:10393000B3F84620C4EBC40303EB44130CEB43037E
:10394000B3F84410C4EBC40303EB44130CEB430083
:103950004FF07F4314F098F8601CC4B2BC42FFF6ED
:10396000A8AE4FF0FF300090BDF8CEA2BDF8D0C297
:103970000CF1080C0CFB09AC1FFA8CF3BDF8CC223F
:103980005146BDF8C80205F087F9002011F0D8FBB8
:10399000804633460E4A2946404600971AF0AEFE4E
:1039A000B8F1030F03D0B8F1010F7FF462AE2BF032
:1039B00025FC3346064A2946404600971AF09EFEEB
:1039C00038F07EFD0DF5367DBDE8F087DC2E042055
:1039D000FAC104202DE9F047ADF5367D07460D46C6
:1039E00090461E464FF000094FF4307102A8FCF7D4
:1039F00087FC002439E00020C4EBC40101EB441132
:103A000002AA02EB41010871C4EBC40101EB4411AD
:103A100002EB41018870C4EBC40101EB441102EBDD
:103A20004101C870D1484078C4EBC40101EB441196
:103A300002EB4101C871287AC4EBC40101EB4411C7
:103A400002EB41010872C4EBC40000EB441002A970
:103A500001EB40000930C4EBC40101EB441102EB5F
:103A60004101097A4454601CC4B2B442C3DB4E2203
:103A70002946BF48FCF72BFC00BF0E2205F13001A0
:103A8000B2A8FCF724FC95F81C904FF07F4001167B
:103A9000CDE90010BDF8CEA2BDF8D0C20CF1080CE3
:103AA0000CFB09AC1FFA8CF3BDF8CC225146BDF8D3
:103AB000C80205F0A7F8002422E10120C4EBC401EC
:103AC00001EB441102AA02EB41010871C4EBC401ED
:103AD00001EB441102EB410188700020C4EBC401EA
:103AE00001EB441102EB4101C870C4EBC40101EBCE
:103AF000441102EB410148710120C4EBC40101EB08
:103B0000441102EB41018871288EC4EBC40101EB22
:103B1000441102EB410108866A8EBDF8D0020830DC
:103B2000611C00FB012081B2C4EBC40000EB441017
:103B300002AA02EB40004186A98EC4EBC40000EB50
:103B4000441002EB40008186EA8EBDF8D0020830B6
:103B5000611C00FB012081B2C4EBC40000EB4410E7
:103B600002AA02EB4000C186E88FC4EBC40101EB5E
:103B7000441102EB4101C8874020425BBDF8D002EE
:103B80000830611C00FB012081B2C4EBC40000EBD3
:103B9000441002AA02EB4000A0F84010B5F844001F
:103BA000C4EBC40101EB441102EB4101A1F8440054
:103BB0004620425BBDF8D0020830611C00FB0120AA
:103BC00081B2C4EBC40000EB441002AA02EB400037
:103BD000A0F84610C4EBC40000EB441002A901EBAE
:103BE00040000930C4EBC40101EB441102EB410178
:103BF000097A415C2A7A05F10900805C814217D17B
:103C00000120C4EBC40101EB441102AA02EB410103
:103C100048710020C4EBC40101EB441102EB4101E7
:103C20008871C4EBC40101EB441102EB410108713E
:103C3000C4EBC40000EB441002A901EB4000C08EAD
:103C4000C4EBC40C0CEB441C8A460AEB4C0C0090F1
:103C5000BCF83430C4EBC40C0CEB441C0AEB4C0C29
:103C6000BCF83220C4EBC40C0CEB441C0AEB4C0C2B
:103C7000BCF83010C4EBC40C0CEB441C0AEB4C0039
:103C800005F030F839484078E0B94FF07F40C4EB98
:103C9000C40303EB4413D4460CEB43030090B3F886
:103CA0004020C4EBC40303EB44130CEB4303D98F54
:103CB000C4EBC40303EB44130CEB4300012312F0E9
:103CC000DFFD1BE0C4EBC40303EB44130DF1080C50
:103CD0000CEB4303B3F84620C4EBC40303EB4413DB
:103CE0000CEB4303B3F84410C4EBC40303EB4413DD
:103CF0000CEB43004FF07F4313F0E2FD601CC4B2B5
:103D0000B442FFF6DAAE4FF0FF300090BDF8CEA21D
:103D1000BDF8D0C20CF1080C0CFB09AC1FFA8CF3F7
:103D2000BDF8CC225146BDF8C80204F0B5FF002012
:103D300011F006FA074643460D4A294638460096D2
:103D400019F030FA032F02D0012F7FF496AE2BF03A
:103D5000FDF94346064A29463846009619F022FAEC
:103D600038F0C2F80DF5367DBDE8F087DC2E042072
:103D7000DAFA04209FED0E2AF0EE421A9FED0D2A8A
:103D8000B0EE421A30EE602AB0EE421A9FED0A2AD7
:103D9000B4EEC21AF1EE10FA08DB9FED052AB4EE7C
:103DA000C21AF1EE10FA01D8002070470120FCE79A
:103DB000BD37863500000000BD3786B500B5014629
:103DC000D1F8050000EE900AD1F8090000EE100AC3
:103DD000FFF7D0FF00BD000070B504460025B6E037
:103DE000D648417840F2B3106043D54A02EB8000D8
:103DF00005EB051202EBC51200EB420080F85910EA
:103E000040F2D5206043CF4901EB4000401C00EB5D
:103E10000410017840F2B3106043C94A02EB8000FD
:103E200005EB051202EBC51200EB4200401C00EB53
:103E30000410017040F2D5206043C24901EB4000FC
:103E400090F8761040F2B3106043BD4A02EB800058
:103E500005EB051202EBC51200EB420080F876106C
:103E600040F2D5206043B74901EB400090F875104F
:103E700040F2B3106043B24A02EB800005EB05123A
:103E800002EBC51200EB420080F8751040F2D5201D
:103E90006043AC4901EB400090F8771040F2B3105A
:103EA0006043A74A02EB800005EB051202EBC51246
:103EB00000EB420080F8771040F2B3106043A04955
:103EC00001EB800005EB051101EBC51110F8111095
:103ED00040F2D52060439B4A12F81000814204D082
:103EE0009FED990A994880ED000A984890ED000AE4
:103EF000B5EEC00AF1EE10FA15D140F2D5206043BC
:103F0000904901EB4000D0F87A0040F2B3116143D0
:103F10008B4A02EB810105EB051202EBC51201EBA6
:103F20004201C1F87A0040F2D5206043854911F87A
:103F3000101040F2B3106043814A02EB800005EBA1
:103F4000051202EBC51200F81210681CC5B2062D4E
:103F5000FFF646AF7D4890ED000AF7EE000A30EE1E
:103F6000200A80ED000A40F2B3106043744901EB6F
:103F70008000D0F87A0000EE100A40F2D5206043AD
:103F8000704901EB4000D0F87A0000EE900AB4EEE0
:103F9000E00AF1EE10FA12D240F2D52262430B464B
:103FA00003EB420202F1750140F2B3126243644B2B
:103FB00003EB820202F175000D22FCF788F940F252
:103FC000B31060435E4901EB8000D0F89C0100EE25
:103FD000100A40F2D52060435A4901EB4000D0F866
:103FE0007A0000EE900AB4EEE00AF1EE10FA12DD6B
:103FF00040F2D52262430B4603EB420202F1750107
:1040000040F2B31262434E4B03EB820202F297106E
:104010000D22FCF75CF940F2B3106043484901EB14
:104020008000D0F8BE0200EE100A484890ED001A59
:10403000C0EE010A40F2B310604301EB8000D0F8FB
:10404000BE0200EE100A70EE600A40F2D520604316
:104050003C4901EB4000D0F87A0000EE100A3B48E2
:1040600090ED001AC0EE011A30EEA10A10EE101AFF
:1040700040F2B3106043324A02EB8000C0F8BE1237
:1040800040F2B3106043114601EB8000D0F87A0093
:1040900000EE100A40F2B310604301EB8000D0F84C
:1040A0009C0100EE900A30EE600A10EE101A40F209
:1040B000B310604302EB8000C0F8E01340F2B3108D
:1040C0006043114601EB8000D0F87A0000EE100A40
:1040D00040F2B310604301EB8000D0F8BE0200EE66
:1040E000900A30EE600A10EE101A40F2B3106043EE
:1040F00002EB8000C0F8021540F2B3106043114695
:1041000001EB8000D0F89C0100EE100AF1EE400AAD
:1041100040F2B310604301EB8000D0F8BE0200EE25
:10412000100A30EE800A10EE101A40F2B31060430D
:1041300002EB8000C0F8241670BD0000DC2E0420C5
:104140003A840220EC4502200000000040000220DA
:10415000014601B90120002003E00A2291FBF2F19F
:10416000401C0029F9D170472DE9F74F88B08346EC
:10417000914600BF20270020059006900790FE4939
:10418000487008704E22FD480999FCF7A0F8FC4CD5
:1041900004F6B65A4A465846099900F0AFFA502537
:1041A00099F80000801EF749095CF748027A093047
:1041B000815499F8000000EB800202EBC002F34842
:1041C00011180D22F248FCF782F899F8000000EB74
:1041D000800202EBC002ED48823011180D22EC483B
:1041E0004E30FCF774F899F8000000EB800202EB07
:1041F000C002E84811180D22E5489C30FCF767F82A
:1042000099F8000000EB800202EBC002E148823026
:1042100011180D22DE48EA30FCF759F800BF1827C4
:10422000DD480022638E9B1C03EB47039BB2CDE964
:10423000012000930390208E2844503083B2608E7A
:10424000801C384482B2208E284481B2D048BF38C6
:1042500004F014FBD0490023608E801C07EB870C10
:10426000604480B2CDE9013103910090608E801CE2
:1042700000EB870082B2208E2844823083B2208EE9
:10428000284481B2C248233804F0F8FAC249002316
:10429000608E801C07EB870C604480B2CDE9013151
:1042A00003910090208E05EB450C60446E3083B284
:1042B000608E801C00EB870082B2208E05EB450CDF
:1042C0006044143881B2B2482B3004F0D7FAB249B6
:1042D0000023608E801C07EB470C00EB4C0080B283
:1042E000CDE9013103910090608E801C07EB870CB3
:1042F000604482B2208E2844823083B2208E2844CB
:1043000081B2A348793004F0B9FAA3490023608E42
:10431000801C07EB470C00EB4C0080B2CDE901316B
:1043200003910090208E05EB450C60446E3083B203
:10433000608E801C07EB870C604482B2208E05EBF8
:10434000450C6044143881B29148C73004F096FAA5
:1043500091490023BAF83600001F80B2CDE901313F
:1043600003910090208E28443C3083B2BAF832008A
:10437000001F82B2208E284481B2884804F07EFA61
:1043800085490023BAF83600001F80B2CDE901311B
:1043900003910090208E05EB450C6044783083B289
:1043A000208E05EB450C604481B2BAF83200001F44
:1043B00082B27A484E3004F061FA2027784814F02F
:1043C0002BFD628E921C07EB87031A4491B2228E5A
:1043D000921C2A440F3290B272A212F0C3FD002642
:1043E000F2E04FF00008E9E0012E01D0022E50D19A
:1043F000C6EBC60101EB4611654ABF3A02EB8101EB
:10440000C8EBC80202EB481201EB420101F12300A4
:1044100005A91BF0B5FC624903C9C6EBC60303EB53
:104420004613DFF86CC1ACF1BF0C0CEB8303C8EB97
:10443000C80C0CEB481C03EB4C03CDE900015B8E70
:104440009B1C9AB2C6EBC60303EB4613DFF840C1D0
:10445000ACF1BF0C0CEB8303C8EBC80C0CEB481C95
:1044600003EB4C031B8E9B1C99B2C6EBC60303EBFC
:104470004613DFF81CC1ACF1BF0C0CEB8303C8EB97
:10448000C80C0CEB481C03EB4C0005AB11F0C2FB55
:1044900090E03C4827384078C8BBC6EBC60303EB26
:1044A0004613DFF8ECC0ACF1BF0C0CEB8303C8EB98
:1044B000C80C0CEB481C03EB4C035B8E9B1C9AB2A4
:1044C000C6EBC60303EB4613DFF8C4C0ACF1BF0C68
:1044D0000CEB8303C8EBC80C0CEB481C03EB4C0340
:1044E0001B8E0F3399B2C6EBC60303EB4613DFF8FE
:1044F000A0C0ACF1BF0C0CEB8303C8EBC80C0CEBF9
:10450000481C03EB4C00012311F01EFF52E0FFE7B3
:10451000C6EBC60303EB4613DFF874C0ACF1BF0C67
:104520000CEB8303C8EBC80C0CEB481C03EB4C03EF
:104530005B8E9B1C9AB2C6EBC60303EB4613DFF8F7
:1045400050C0ACF1BF0C0CEB8303C8EBC80C0CEBF8
:10455000481C03EB4C031B8E0F3399B2C6EBC6030A
:1045600003EB4613DFF828C0ACF1BF0C0CEB830360
:10457000C8EBC80C18E0000034000220E231022031
:10458000F4410420032F0420E02A0220ED3104200E
:10459000732D0220F1320420303030C0882E0220EA
:1045A000C8000220560000000CEB481C03EB4C0036
:1045B00012F0E4FE08F1010000F0FF08B8F1020F6C
:1045C000FFF612AF701CC6B2042EFFF60AAF002031
:1045D00010F0B6FD8346022004213F4B3F4ACDE94F
:1045E00000105846099916F053FEBBF1030F03D192
:1045F00039480078032803D0BBF1010F7FF40FAED8
:104600002AF0BAFC02200421334B344ACDE90010D1
:104610005846099916F03CFE4FF07F4014F00AFC12
:104620002F48B0F8BC212F48B0F80602101A4630C7
:1046300083B22C48B0F80602103881B240F27D22D5
:10464000022013F067FF4FF0FF3014F0F3FB37F058
:10465000F9FD2548017A0930425C99F80000801E76
:1046600022490A5499F8001001EB810202EBC102C1
:104670001F4950180D221F49FBF729FE99F8001019
:1046800001EB810202EBC1021949823150180D225F
:1046900018494E31FBF71BFE99F8001001EB81021F
:1046A00002EBC102144950180D2212499C31FBF74C
:1046B0000EFE99F8001001EB810202EBC1020E49D7
:1046C000823150180D220B49EA31FBF700FE24F02D
:1046D0000BF80BB0BDE8F08F34000220E23102206D
:1046E000465004202A3C0420E02A0220032F042004
:1046F000ED310420732D0220F13204202DE9FC5FFE
:104700008B46914600BF2025002748E04FF0000867
:1047100040E00120C7EBC70101EB4711FA4A02EB69
:104720008101C8EBC80202EB481201EB420108719B
:104730000020C7EBC70101EB4711F34A02EB8101EF
:10474000C8EBC80202EB481201EB4201887000215D
:10475000C7EBC70000EB4710EB4A02EB8000C8EB49
:10476000C80202EB481200EB4200C170E7484078F3
:10477000C7EBC70101EB4711E34A02EB8101C8EB2C
:10478000C80202EB481201EB4201C87108F10100B6
:1047900000F0FF08B8F1020FBBDB781CC7B2042F92
:1047A000B4DB0F20D84908729BF808100BF1090000
:1047B000415CD548027A093081540120D249887081
:1047C0004871002088710871022008771121CE48B5
:1047D00080F8A410012180F89E10112180F8F210B9
:1047E000012180F8EC10112180F84011012180F89E
:1047F0003A11112180F88E11012180F888111021C1
:1048000080F8DC11002190F8DC2100F2DD108154E9
:104810000121BD4880F8D611102180F82A1201210B
:1048200090F82A2200F22B208154B74880F82412F5
:1048300099F8000000EB800202EBC002B4481118A6
:104840000D22B148BF30FBF742FD99F8000000EBA4
:10485000800202EBC002AE48823011180D22AD4832
:10486000FBF735FD99F8000000EB800202EBC00277
:10487000A94811180D22A7484E30FBF728FD99F8DA
:10488000000000EB800202EBC002A3488230111846
:104890000D22A0489C30FBF71AFDA04C04F6B6563A
:1048A0004FF0500A4FF07F400116CDE90010F38E13
:1048B000B28E618E208E04F0A5F9B38EB4F830C0AC
:1048C000A3EB0C039AB2638E163399B2604613F0D1
:1048D000BFFAB38EB4F830C0A3EB0C031B1F9AB21F
:1048E000638E03EB450399B20CF1020398B21823CF
:1048F00013F034FDB38EB4F830C0A3EB0C039AB2BE
:10490000F38E5B1B99B2604613F0A2FA844814F050
:1049100091FAB38EB4F830C0A3EB0C039B1E9AB28D
:10492000638E5B1C99B20CF1010398B2152313F04E
:10493000F1FD4FF0FF3014F07DFA794814F07AFA67
:10494000B38EB4F830C0A3EB0C039B1F9AB2B4F83B
:1049500032C00CEB45035B1C99B2238EDB1C98B272
:10496000162313F0D7FD4FF0FF3014F063FA202523
:104970006648407800285FD1694814F035FA628EA5
:10498000921C91B2228E921C90B2012365A211F06A
:104990000DFB628E921C02EB450291B2228E921C9C
:1049A00052440F3290B2012361A211F0FFFA628EDD
:1049B000921C02EB450291B2228E921C0AEB4A0332
:1049C0001A440F3290B201235BA211F0EFFA4FF0BC
:1049D0007F4014F009FA628E2A4491B2228E921C12
:1049E00090B2012356A211F0E1FA628E921C05EBFF
:1049F00045031A4491B2228E921C90B2012352A216
:104A000011F0D4FA628E921C02EB850291B2228ED2
:104A1000921C90B201234EA211F0C8FA628E921C31
:104A200005EB85031A4491B2228E921C90B20123A9
:104A300049A211F0BBFA64E034484078012860D103
:104A4000374814F0D1F9464814F0E6F9628E921C0A
:104A500091B2228E921C90B242A212F083FA404888
:104A600014F0DAF9628E921C02EB450291B2228EAA
:104A7000921C52440F3290B23EA212F073FA628E30
:104A8000921C02EB450291B2228E921C0AEB4A0361
:104A90001A440F3290B239A212F064FA4FF07F40FC
:104AA00014F0A2F9364814F0B7F9628E2A4491B294
:104AB000228E921C90B233A212F054FA628E921C93
:104AC00005EB45031A4491B2228E921C90B22EA29D
:104AD00012F048FA628E921C02EB850291B2228E8D
:104AE000921C90B22AA212F03DFA628E921C05EB43
:104AF00085031A4491B2228E921C90B226A212F023
:104B000031FABDE8FC9F0000B42C0220DC2E04200A
:104B1000ED310420C12D0220F1320420F4410420A3
:104B2000FF0000FFB5A5CEBBD7AABBBB00000000AD
:104B3000B2E2B6A8D6B50000CAE4B3F6D6B5000016
:104B4000B9A6C4DC00000000C9CFCFDED6B5000096
:104B5000CFC2CFDED6B50000B5A5CEBBA3BA00004C
:104B6000C0000220556E69742053657474696E67C5
:104B7000000000004D6561730000000045750000F5
:104B8000C800022045553A0055707065720000005B
:104B90004C6F776572000000556E69743A00000032
:104BA0002DE9F74F88B08346914600BF4FF02008AB
:104BB0000020059006900790FE49487008704E222C
:104BC000FD480999FBF783FBFC4C04F6B65A4A46AC
:104BD0005846099900F03CFA99F80000801EF849FF
:104BE000095CF848027A0930815499F80000801E67
:104BF00000EB800202EBC002F34811180D22F148CD
:104C0000BF30FBF764FB99F80000801E00EB8002C8
:104C100002EBC002EC48823011180D22EB48FBF782
:104C200056FB502700BF4FF01808E9480022638E5A
:104C30009B1C03EB48039BB2CDE90120009303903A
:104C4000208E3844503083B2608E801C404482B243
:104C5000208E384481B2DB4803F010FEDC4900238B
:104C6000608E801C08EB880C604480B2CDE9013175
:104C700003910090608E801C00EB880082B2208E31
:104C80003844823083B2208E384481B2CF487138A4
:104C900003F0F4FDCE490023608E801C08EB880CE5
:104CA000604480B2CDE9013103910090208E07EB82
:104CB000470C60446E3083B2608E801C00EB88002D
:104CC00082B2208E07EB470C6044143881B2BF4893
:104CD000233803F0D3FDBE490023BAF83600001F85
:104CE00080B2CDE9013103910090208E38443C30F0
:104CF00083B2BAF83200001F82B2208E384481B2EB
:104D0000B2482B3003F0BAFDB1490023BAF836009F
:104D1000001F80B2CDE9013103910090208E07EB96
:104D2000470C6044783083B2208E07EB470C604418
:104D300081B2BAF83200001F82B2A448793003F081
:104D40009DFD4FF02008A34814F066F8628E921C77
:104D500002EB880291B2228E921C3A440F3290B23A
:104D60009DA212F0FFF80025BFE00026B8E0012D5B
:104D700049D1C5EBC50101EB4511924A02EB810116
:104D8000C6EBC60202EB461201EB420101F1230021
:104D900005A91AF0F5FF8F4903C9C5EBC50303EB5D
:104DA0004513DFF820C20CEB8303C6EBC60C0CEBFB
:104DB000461C03EB4C03CDE900015B8E9B1C9AB2B1
:104DC000C5EBC50303EB4513DFF8F8C10CEB830318
:104DD000C6EBC60C0CEB461C03EB4C031B8E9B1C5A
:104DE00099B2C5EBC50303EB4513DFF8D8C10CEB53
:104DF0008303C6EBC60C0CEB461C03EB4C0005AB67
:104E000010F008FF6AE06E483138407898BBC5EB77
:104E1000C50303EB4513DFF8ACC10CEB8303C6EB12
:104E2000C60C0CEB461C03EB4C035B8E9B1C9AB22E
:104E3000C5EBC50303EB4513DFF888C10CEB830317
:104E4000C6EBC60C0CEB461C03EB4C031B8E0F335E
:104E500099B2C5EBC50303EB4513DFF868C10CEB52
:104E60008303C6EBC60C0CEB461C03EB4C00012382
:104E700011F06AFA32E0FFE7C5EBC50303EB451317
:104E8000DFF840C10CEB8303C6EBC60C0CEB461CF1
:104E900003EB4C035B8E9B1C9AB2C5EBC50303EB83
:104EA0004513DFF820C10CEB8303C6EBC60C0CEBFB
:104EB000461C03EB4C031B8E0F3399B2C5EBC503A5
:104EC00003EB4513DFF8FCC00CEB8303C6EBC60C09
:104ED0000CEB461C03EB4C0012F050FA701CC6B2EF
:104EE000022EFFF644AF681CC5B2032DFFF63DAF9E
:104EF000002010F025F98346022003212D4B2E4A75
:104F0000CDE900105846099918F014FBBBF1030FC6
:104F100003D128480078022803D0BBF1010F7FF4A9
:104F200082AE2AF029F802200321224B224ACDE941
:104F300000105846099918F0FDFA4FF07F4013F021
:104F400079FF2648B0F8BC212548B0F80602101AAF
:104F5000463083B22248B0F80602103881B240F2DF
:104F60007D22022013F0D6FA4FF0FF3013F062FFDB
:104F700037F068F91348D0F8C40000EE100A114861
:104F8000D0F8120100EE900A30EE600ADFED150A4B
:104F9000B4EEE00AF1EE10FA28D2B7EE000A10EEF5
:104FA000101A0848C0F8C410BFEE000A10EE101A1C
:104FB0001AE00000250002205C300220F4410420A9
:104FC0000D2F0420E02A022001370420ED2B0220BF
:104FD000303030C0C8000220560000004650042087
:104FE0002A3C0420CDCCCC3DC0F812111448017AE3
:104FF0000930425C99F80000801E12490A5499F861
:105000000010891E01EB810202EBC1020E4950180B
:105010000D220B49BF31FBF75AF999F80010891E90
:1050200001EB810202EBC1020749823150180D22C7
:105030000649FBF74CF923F057FB0BB0BDE8F08FA6
:10504000E02A02200D2F042001370420ED2B02203E
:105050002DE9FC5F83468A464FF03C092025002756
:1050600047E04FF000083FE00121C7EBC70000EB2D
:105070004710CC4A02EB8000C8EBC80202EB481292
:1050800000EB420001710021C7EBC70000EB4710A5
:10509000C44A02EB8000C8EBC80202EB481200EBE6
:1050A00042008170C7EBC70000EB4710BD4A02EB1E
:1050B0008000C8EBC80202EB481200EB4200C1704E
:1050C000B9484078C7EBC70101EB4711B54A02EB7D
:1050D0008101C8EBC80202EB481201EB4201C87122
:1050E00008F1010000F0FF08B8F1020FBCDB781CEA
:1050F000C7B2032FB5DB1220AA4908729AF808102C
:105100000AF10900415CA748027A09308154012064
:10511000A4498870487100208871087104200877BC
:105120001121A04880F8A410012180F89E101121BF
:1051300080F8F210012180F8EC10102180F8401165
:10514000002190F8402100F241108154012195483E
:1051500080F83A11102180F88E11012190F88E21EB
:1051600000F28F1081548F4880F888118F4C04F61C
:10517000B6564FF050094FF07F400116CDE90010B0
:10518000F38EB28E618E208E03F03CFDB38EB4F8A8
:1051900030C0A3EB0C039AB2638E163399B260460B
:1051A00012F056FEB38EB4F830C0A3EB0C031B1FF5
:1051B0009AB2638E03EB450399B20CF1020398B2E5
:1051C000182313F0CBF8B38EB4F830C0A3EB0C0364
:1051D0009AB2F38E5B1B99B2604612F039FE7448A6
:1051E00013F028FEB38EB4F830C0A3EB0C039B1E63
:1051F0009AB2638E5B1C99B20CF1010398B215232D
:1052000013F088F94FF0FF3013F014FE684813F0E4
:1052100011FEB38EB4F830C0A3EB0C039B1F9AB2FF
:10522000638E03EB45035B1C99B20CF1030398B248
:10523000162313F06FF94FF0FF3013F0FBFD20251C
:1052400059484078002852D1594813F0CDFD628E5C
:10525000921C91B2228E921C90B2012355A210F0A2
:10526000A5FE628E921C02EB450291B2228E921C28
:105270004A440F3290B2012351A210F097FE628E81
:10528000921C02EB450291B2228E921C09EB49035B
:105290001A440F3290B201234BA210F087FE4FF058
:1052A0007F4013F0A1FD628E2A4491B2228E921C9F
:1052B00090B2012346A210F079FE628E921C05EB9B
:1052C00045031A4491B2228E921C90B2012342A24D
:1052D00010F06CFE628E921C02EB850291B2228E5F
:1052E000921C90B201233FA210F060FE58E02E48BD
:1052F0004078012854D12E4813F076FD3B4813F036
:105300008BFD628E921C91B2228E921C90B238A2BA
:1053100011F028FE354813F07FFD628E921C02EBDF
:10532000450291B2228E921C4A440F3290B234A2AE
:1053300011F018FE628E921C02EB450291B2228E91
:10534000921C09EB49031A440F3290B22DA211F0BE
:1053500009FE4FF07F4013F047FD2B4813F05CFD32
:10536000628E2A4491B2228E921C90B227A211F032
:10537000F9FD628E921C05EB45031A4491B2228E10
:10538000921C90B223A211F0EDFD628E921C02EBF2
:10539000850291B2228E921C90B220A211F0E2FD01
:1053A000BDE8FC9FE02A0220DC2E0420F44104200A
:1053B000FF0000FFCDA8B5C0C9E8D6C300000000BB
:1053C000C9CFCFDED6B50000CFC2CFDED6B5000044
:1053D000B1A8BEAFA3BA0000C9E8D6C3D6B5A3BA78
:1053E00000000000B5A5CEBBA3BA0000C00002209B
:1053F0004C696D69742053657474696E67000000B0
:105400004D6178004D696E00C8000220416C6172E8
:105410006D3A000056616C3A00000000556E6974E8
:105420003A0000002DE9F043ADB006460D461746A0
:105430004FF000089C2102A8FAF762FF002439E02F
:105440000020C4EBC40101EB441102AA02EB4101AC
:105450000871C4EBC40101EB441102EB41018870F7
:10546000C4EBC40101EB441102EB4101C870CC480C
:105470004078C4EBC40101EB441102EB4101C87157
:10548000287AC4EBC40101EB441102EB410108721C
:10549000C4EBC40000EB441002A901EB400009304A
:1054A000C4EBC40101EB441102EB4101097A4454FD
:1054B000601CC4B2022CC3DB4E222946B948FAF75D
:1054C00006FF00BF0E2205F1300129A8FAF7FFFE02
:1054D00095F81C804FF07F400116CDE90010BDF813
:1054E000AA90BDF8ACC00CF1080C0CFB089C1FFA8C
:1054F0008CF3BDF8A8204946BDF8A40003F082FB58
:1055000000241DE10120C4EBC40101EB441102AAF7
:1055100002EB41010871C4EBC40101EB441102EB41
:10552000410188700020C4EBC40101EB441102EB7F
:105530004101C870C4EBC40101EB441102EB41010D
:1055400048710120C4EBC40101EB441102EB41019D
:105550008871288EC4EBC40101EB441102EB4101B8
:1055600008866A8EBDF8AC000830611C00FB012083
:1055700081B2C4EBC40000EB441002AA02EB40006D
:105580004186A98EC4EBC40000EB441002EB40003E
:105590008186EA8EBDF8AC000830611C00FB01205A
:1055A00081B2C4EBC40000EB441002AA02EB40003D
:1055B000C186E88FC4EBC40101EB441102EB410149
:1055C000C8874020425BBDF8AC000830611C00FB7E
:1055D000012081B2C4EBC40000EB441002AA02EB2C
:1055E0004000A0F84010B5F84400C4EBC40101EB42
:1055F000441102EB4101A1F844004620425BBDF892
:10560000AC000830611C00FB012081B2C4EBC40077
:1056100000EB441002AA02EB4000A0F84610C4EBD5
:10562000C40000EB441002A901EB40000930C4EBB8
:10563000C40101EB441102EB4101097A415C2A7A71
:1056400005F10900805C814217D10120C4EBC4013F
:1056500001EB441102AA02EB410148710020C4EBA6
:10566000C40101EB441102EB41018871C4EBC40198
:1056700001EB441102EB41010871C4EBC40000EBE3
:10568000441002A901EB4000C08EC4EBC40C0CEB2B
:10569000441C894609EB4C0C0090BCF83430C4EB38
:1056A000C40C0CEB441C09EB4C0CBCF83220C4EBD2
:1056B000C40C0CEB441C09EB4C0CBCF83010C4EBD4
:1056C000C40C0CEB441C09EB4C0003F00BFB3448FE
:1056D0004078C8B9C4EBC40303EB4413CC460CEBCD
:1056E0004303B3F84020C4EBC40303EB44130CEBB7
:1056F0004303D98FC4EBC40303EB44130CEB430007
:10570000012311F005FB19E0C4EBC40303EB4413C0
:105710000DF1080C0CEB4303B3F84620C4EBC403B3
:1057200003EB44130CEB4303B3F84410C4EBC40382
:1057300003EB44130CEB430012F0D4FA601CC4B228
:10574000022CFFF6DFAE4FF0FF300090BDF8AA90BC
:10575000BDF8ACC00CF1080C0CFB089C1FFA8CF3D4
:10576000BDF8A8204946BDF8A40003F095FA002032
:105770000FF0E6FC064602203B460A4A2946009006
:10578000304618F049F9032E02D0012E7FF49AAE6C
:10579000054A29463046FEF7B1FF2DB0BDE8F0833B
:1057A000DC2E0420CC320220F90202202DE9F74F32
:1057B00088B08246174600BF4FF0200800200590B1
:1057C00006900790FE49487008704E22FD480999DE
:1057D000FAF77DFDFC4C04F6B65B3A465046099953
:1057E00000F02EFB3878801EF849095CF848027AF0
:1057F000093081543878801E00EB4002F348403075
:1058000000EB42010622F2486B30FAF7A2FD38782D
:10581000801E00EB800202EBC002EE4811180D2240
:10582000EB48BF30FAF753FD3878801E00EB80025A
:1058300002EBC002E748823011180D22E648FAF761
:1058400046FD4FF0500900BF4FF01808E348002212
:10585000638E9B1C03EB48039BB2CDE901200093B0
:105860000390208E4844503083B2608E801C4044A8
:1058700082B2208E484481B2D54802F0FFFFD7485B
:105880000022638E9B1C03EB48039BB2CDE90120F1
:1058900000930390208E09EB490C60446E3083B274
:1058A000208E09EB490C6044143881B2608E801C54
:1058B000404482B2C6484E3002F0E0FFC7490023A0
:1058C000608E801C08EB880C604480B2CDE9013109
:1058D00003910090608E801C00EB880082B2208EC5
:1058E0004844823083B2208E484481B2BA4871382D
:1058F00002F0C4FFB9490023608E801C08EB880CBD
:10590000604480B2CDE9013103910090208E09EB13
:10591000490C60446E3083B2608E801C00EB8800BE
:1059200082B2208E09EB490C6044143881B2AA4837
:10593000233802F0A3FFA9490023BBF83600001F5B
:1059400080B2CDE9013103910090208E48443C3073
:1059500083B2BBF83200001F82B2208E484481B26D
:105960009D482B3002F08AFF9C490023BBF836008B
:10597000001F80B2CDE9013103910090208E09EB28
:10598000490C6044783083B2208E09EB490C6044A6
:1059900081B2BBF83200001F82B28F48793002F02A
:1059A0006DFF4FF020088E4813F036FA628E921C7D
:1059B00002EB880291B2228E921C4A440F3290B2BE
:1059C00088A211F0CFFA002526E100261FE1E5BBF1
:1059D000012E4ED1824903C9C5EBC50C0CEB451C09
:1059E000DFF8ECE10EEB8C0CC6EBC60E0EEB461EA0
:1059F0000CEB4E0C0CF11D03C5EBC50C0CEB451C60
:105A0000DFF8CCE10EEB8C0CC6EBC60E0EEB461E9F
:105A10000CEB4E0CCDE90001BCF832C00CF1020CCD
:105A20001FFA8CF2C5EBC50C0CEB451CDFF8A0E1AE
:105A30000EEB8C0CC6EBC60E0EEB461E0CEB4E0CA2
:105A4000BCF830C00CF1020C00E012E01FFA8CF13F
:105A5000C5EBC50C0CEB451CDFF874E10EEB8C0CB0
:105A6000C6EBC60E0EEB461E0CEB4E0010F0D2F845
:105A7000CBE0012D49D1C5EBC50101EB4511544ADD
:105A800002EB8101C6EBC60202EB461201EB4201BA
:105A900001F1230005A91AF073F9514903C9C5EBB7
:105AA000C50303EB4513DFF828C10CEB8303C6EBFA
:105AB000C60C0CEB461C03EB4C03CDE900015B8EDE
:105AC0009B1C9AB2C5EBC50303EB4513DFF800C17D
:105AD0000CEB8303C6EBC60C0CEB461C03EB4C0330
