:020000040800F2
:1000000038B106200D020008ED9A0208AFAE0108D3
:1000100001100208671C0008315B040800000000A2
:100020000000000000000000000000005939030833
:1000300091BB0008000000009109000855C40208A7
:1000400027020008270200082702000827020008EC
:1000500027020008270200082702000827020008DC
:1000600027020008270200082702000827020008CC
:1000700027020008270200082702000827020008BC
:1000800027020008270200082702000827020008AC
:10009000270200082702000827020008270200089C
:1000A00027020008D50A04082702000827020008D2
:1000B000270200082702000827020008270200087C
:1000C000270200082702000827020008270200086C
:1000D000270200082702000827020008F51E04086E
:1000E000270200082702000827020008270200084C
:1000F000270200082702000827020008270200083C
:10010000270200082702000827020008270200082B
:100110002702000861160408E50A0408F50A040825
:100120005D9C00082702000827020008270200083B
:1001300027020008270200082702000827020008FB
:1001400027020008270200082702000827020008EB
:10015000659C000827020008270200084D1F0408BC
:10016000270200082702000869DA020859DA0208A3
:100170002702000879DA02082702000800000000C0
:1001800027020008270200082702000827020008AB
:10019000270200082702000827020008270200089B
:1001A000270200082702000827020008270200088B
:1001B000270200082702000827020008270200087B
:1001C000270200082702000800000000270200089C
:1001D0002702000827020008270200085924030804
:1001E000270200082702000827020008270200084B
:1001F0002702000827020008DFF80CD000F0C6FA3A
:1002000000480047E512050838B106200648804737
:1002100006480047FEE7FEE7FEE7FEE7FEE7FEE7EB
:10022000FEE7FEE7FEE7FEE781DF0308F9010008CD
:1002300072B6704762B67047EFF3108072B67047BF
:1002400080F31088704730BF704720BF7047B0FA06
:1002500080F0704790FAA0F0B0FA80F0704790FA02
:10026000A0F070472DE9F05F0546002092469B46BE
:1002700088460646814640241BE0284641464746BC
:10028000224600F0A7F853465A46C01A914110D3AF
:1002900011461846224600F08EF82D1A67EB010829
:1002A0004F4622460120002100F085F817EB000997
:1002B0004E41201EA4F10104DFDC484631462A46A7
:1002C0004346BDE8F09FC0B2802100F093B840EAF9
:1002D00001039B0703D009E008C9121F08C0042AC4
:1002E000FAD203E011F8013B00F8013B521EF9D2AB
:1002F0007047D2B201E000F8012B491EFBD27047D3
:100300000022F6E710B513460A4604461946FFF7E1
:10031000F0FF204610BD421E12F8013F002BFBD11A
:1003200011F8013B02F8013B002BF9D1704730B5C1
:1003300005462A460B4612F8010B13F8014B08B18B
:10034000A042F8D01CB1002802D06D1CF1E728466D
:1003500030BD10B5044604E00B7800F8013B03B152
:10036000491C521EF8D2204610BD421C10F8011B39
:100370000029FBD1801A7047034611F8012B00F8C1
:10038000012B002AF9D11846704730B50B460146BB
:1003900000202022012409E021FA02F59D4205D324
:1003A00003FA02F5491B04FA02F52844151EA2F1CE
:1003B0000102F1DC30BD202A04DB203A00FA02F110
:1003C000002070479140C2F1200320FA03F3194343
:1003D00090407047202A04DB203A21FA02F00021E5
:1003E000704721FA02F3D040C2F120029140084345
:1003F000194670477F2801D9002208E0064A02EB1F
:100400005002C007127800D1120902F00F02012039
:100410009040084070470000F4690D082DE9FE4F38
:10042000804681EA0300C00F0C46009021F0004195
:1004300023F00045B8EB0200A94105D24046214611
:1004400090461C460B46024623F00040104347D01E
:10045000270DC7F30A00C3F30A510290401A019016
:1004600040286BDAC3F3130040F4801B00989246D7
:1004700020B10023D2EB030A63EB0B0B0198594622
:10048000C0F140025046FFF796FF06460D46504623
:100490005946019A00F08CF910EB080061410024E4
:1004A00087EA115284EAE7731A4340D0009A62B394
:1004B000019A012A4FEA075215DC001B61EB020189
:1004C0004FF0004202EA0752CDE90042001C41F51C
:1004D000801132462B4600F08CF903B0BDE8F08F56
:1004E00040462146F9E7001B61EB0201001C41F583
:1004F000801300185B412018A2F5001747EB030199
:1005000040EAD570B6196D4111E06D084FEA360624
:1005100045EAC0754FEA0752001B61EB0201001C5F
:1005200041F5801149084FEA300000195141324627
:100530002B4603B0BDE8F04F00F04CB90098012203
:1005400040000023D0EB020263EBE07300982146E9
:100550004FEAE074B8EB000061EB0401E9E783F0D7
:1005600000435BE781F0004158E72DE9FE4F81EA47
:10057000030404F0004421F0004100944FF0000B0C
:1005800023F0004350EA01045ED052EA03045BD03A
:10059000C3F30A54C1F30A552C44A4F2F334019472
:1005A000A0FB0254C1F3130141F48011C3F3130300
:1005B00043F4801301FB024400FB034E840A970AB4
:1005C00044EA815447EA8357A4FB076802958D0AE1
:1005D00005FB07854FEA932C04FB0C542705029D6D
:1005E0004FEA065847EA1637B5EB08056EEB070CDD
:1005F000870E920E47EA811742EA8312A7FB020197
:10060000B6EB0B0164EB00042B0D43EA0C335E18D0
:1006100044EB1C50DA465146E7FB0201C5F31304D4
:100620004FEA0B3343EA14534FEA0432019C43EA86
:100630000603A4F10C040294009CCDE900B400F080
:10064000D8F803B0BDE8F08F00200146F9E72DE9A6
:10065000F04D81EA030404F0004B21F000451446FC
:100660004FF0000A23F0004150EA050220D054EA7E
:1006700001021DD0C5F30A570246C5F31303C1F3A7
:100680001300C1F30A5640F4801543F48013A7EB1E
:100690000608101BD64608F2FD3873EB050002D39E
:1006A00008F1010801E092185B41B8F1000F03DA8C
:1006B00000200146BDE8F08D00204FF48011064671
:1006C00084460EE0171B73EB050705D3121B63EB83
:1006D000050306434CEA010C49084FEA3000921822
:1006E0005B4150EA0107EDD152EA030012D082EAE1
:1006F000040083EA0501084305D0101BAB4106D274
:100700000122002306E000224FF0004302E06FF0D8
:10071000010253101AEB06004CEB085110EB0A00D3
:1007200041EB0B01BDE8F04D00F054B8C1F30A52A3
:10073000C1F3130140F2FF3341F480119A4202DA0F
:1007400000200146704740F233439A42A2F23342FE
:1007500002DC5242FFF73EBEFFF72DBE30B5041E4D
:1007600071F1000404DB4FF00044404264EB0101EE
:10077000141E73F1000405DB1C464FF00043524287
:1007800063EB0403994208BF904230BD064C074D0D
:1007900006E0E06840F0010394E807009847103451
:1007A000AC42F6D3FFF72CFDC46A0D08046B0D08AC
:1007B000202A06DBCB17203A41FA02F043EAE07325
:1007C00006E041FA02F3D040C2F120029140084312
:1007D0001946704710B5141E73F1000408DA401C66
:1007E00041F1000192185B411A4301D120F0010050
:1007F00010BD2DE9F04D92469B4611B1B1FA81F240
:1008000002E0B0FA80F220329046FFF7D4FD0446B1
:100810000F4640EA0A0041EA0B0153465A46084394
:1008200013D0114653EA010019D0C8F140025046D6
:10083000FFF7D0FD05460E46504659464246FFF7A3
:10084000BAFD084305D0012004E020463946BDE842
:10085000F08D0020054346EAE0762C4337430A98A2
:100860006305E40AA0EB08000022FD0A44EA4754AD
:100870000A3002D500200146E9E701051019694157
:10088000DDE9084500196941BDE8F04DA2E770B502
:100890008C1810F8015B15F0070301D110F8013B2B
:1008A0002A1106D110F8012B03E010F8016B01F8B2
:1008B000016B5B1EF9D12B0705D40023521E0DD40A
:1008C00001F8013BFAE710F8013BCB1A921C03E058
:1008D00013F8015B01F8015B521EF9D5A142D8D390
:1008E000002070BDEFF3098121B120ED108A3C4951
:1008F0000A6810607047B0EC108A3A490A681060C4
:10090000704772B64EF62250CEF2000040F2FF0160
:10091000C0F200010170002080F3098840F2E0106D
:10092000C2F20200016881F308882BF0C7FB40F295
:100930006210C2F2020040F26311C2F202010A78B0
:10094000027040F2D810C2F2020040F2DC11C2F292
:1009500002010A680260106880F30988EFF31480CE
:1009600040F0020080F31488BFF36F8FBDE8F04FB2
:100970000FBCBDE8005006BC62B608471A484FF0ED
:1009800080510160704718484FF0805101607047F6
:1009900072B6EFF3098020E9F04F40F2D815C2F2A9
:1009A00002052968086074462BF088FB40F262104B
:1009B000C2F2020040F26311C2F202010A78027030
:1009C00040F2DC11C2F202010A682A6044F0040E0F
:1009D0001068B0E8F04F80F3098862B670470000F5
:1009E000D8010220DC01022004ED00E00FB42DE963
:1009F000F041669E659C37469DF81800012814D189
:100A00009DF818300DF1190202EB0312521C9C469E
:100A10000DF1190303EB0C131B7803EB4303D118FF
:100A2000A0190322FFF795FC55E09DF81800022855
:100A300014D19DF818300DF1190202EB0312521C6B
:100A40009C460DF1190303EB0C131B7803EB4303D6
:100A5000D118A0190322FFF77CFC3CE09DF8180098
:100A6000042814D19DF818300DF1190202EB03127D
:100A7000521C9C460DF1190303EB0C131B7803EB7E
:100A80004303D118A0190322FFF763FC23E09DF86C
:100A90001800052814D19DF818300DF1190202EB49
:100AA0000312521C9C460DF1190303EB0C131B7827
:100AB00003EB4303D118A0190322FFF74AFC0AE015
:100AC0009DF818300DF1190202EB0312511CA01908
:100AD0000322FFF73EFC00250AE0605D10B92020EC
:100AE00060552F46BD4201DD20206055681CC5B20F
:100AF000B542F2DBBDE8F0015DF814FB0FB42DE95F
:100B0000F041669E659C37469DF8180001280BD180
:100B10009DF818300DF1190202EB0312D11DA01936
:100B20000322FFF716FC55E09DF81800022814D1A7
:100B30009DF818300DF1190202EB0312521C9C466D
:100B40000DF1190303EB0C131B7803EB4303D118CE
:100B5000A0190322FFF7FDFB3CE09DF818000428D4
:100B600014D19DF818300DF1190202EB0312521C3A
:100B70009C460DF1190303EB0C131B7803EB4303A5
:100B8000D118A0190322FFF7E4FB23E09DF8180019
:100B9000052814D19DF818300DF1190202EB03124B
:100BA000521C9C460DF1190303EB0C131B7803EB4D
:100BB0004303D118A0190322FFF7CBFB0AE09DF8ED
:100BC00018300DF1190202EB0312511CA019032277
:100BD000FFF7BFFB00250AE0605D10B920206055DB
:100BE0002F46BD4201DD20206055681CC5B2B542CC
:100BF000F2DBBDE8F0015DF814FB08B504E06A46DD
:100C0000002114202BF0A2FAF9E700008AB000F0CE
:100C1000C5FB2FF00FFCF849487209A82AF0DCFA4E
:100C200001F0B8FC1AF04EFF1AF07AFF09A8032170
:100C300000220592CDE906210890012080210C2296
:100C4000EE4BCDE90132CDE903100F200023EC4A31
:100C5000ECA10090EE482AF049FB09A803210022EC
:100C60000592CDE9062108900220C90240F26622D1
:100C7000E84BCDE90132CDE9031004200023E64A18
:100C8000E6A10090E8482AF031FB09A803210022E0
:100C90000592CDE906210890012040210622E34B70
:100CA000CDE90132CDE9031003200023E04AE1A1A0
:100CB0000090E4482AF01AFB09A8032100220592BB
:100CC000CDE906210890104680210C22DE4BCDE9AB
:100CD0000132CDE9031008200023DC4ADCA100909A
:100CE000DE482AF003FB09A8032100220592CDE982
:100CF00006210890012080210C22D94BCDE9013238
:100D0000CDE9031013200023D64AD7A10090D9487B
:100D10002AF0ECFA09AB0022D7A1DA4829F0B6FF95
:100D200009A800231A4619460090D64829F0F2FF78
:100D300033F048FD00F05EFF5CE1D3480078D34912
:100D4000097888427CD0D14800780B283DD2DFE872
:100D500000F03C2E100B061A151F2429370009A994
:100D6000CB482AF0B1FB30E009A9CA482AF0ACFB15
:100D70002BE009A9C8482AF0A7FB26E009A9C74823
:100D80002AF0A2FB21E009A9C5482AF09DFB1CE03E
:100D900009A9C4482AF098FB17E009A9C2482AF01B
:100DA00093FB12E009A9C1482AF08EFB0DE009A9C6
:100DB000B0482BF0ADF809A9BD482AF085FB04E046
:100DC00009A9BA482AF080FB00BF00BFAE480078EE
:100DD000032813D1AD48007804280BD0AB48007825
:100DE000052807D0A9480078022803D0A748007832
:100DF000012803D1A5480078AE490870A2480078C0
:100E0000A2490870A04800780A281FD2DFE800F045
:100E1000E9CC371F0583509BB36909A80321002241
:100E20000592CDE906210890022041026622A24BDC
:100E3000CDE90132CDE90310112000239F4A00E0E3
:100E4000D0E09FA1009092482AF050FAC9E009A88A
:100E5000032100220592CDE90621089002204102DB
:100E600066229B4BCDE90132CDE903100B20002314
:100E7000984A99A1009087482AF038FAB1E009A869
:100E8000032100220592CDE90621089002204FF4AB
:100E900090617322934BCDE90132CDE9031010200C
:100EA0000023914A91A100907B482AF01FFA98E014
:100EB00009A8032100220592CDE90621089002200D
:100EC000C10240F299128E4BCDE90132CDE90310F7
:100ED0000D2000238B4A8CA1009070482AF006FA5E
:100EE0007FE009A8032100220592CDE906210890A0
:100EF000022041F6E23140F2C922874BCDE90132AE
:100F0000CDE903100D200023844A85A10090674895
:100F10002AF0ECF965E009A8032100220592CDE949
:100F200006210890022001023322804BCDE90132D4
:100F3000CDE90310122000237D4A7EA1009058487D
:100F40002AF0D4F94DE009A8032100220592CDE949
:100F5000062108900220010233227A4BCDE90132AA
:100F6000CDE903100C200023774A78A100904D486A
:100F70002AF0BCF935E009A8032100220592CDE949
:100F80000621089002204FF4A0618022724BCDE927
:100F90000132CDE903100E200023704A70A10090A9
:100FA00041482AF0A3F91CE009A803210022059278
:100FB000CDE90621089002204FF4D061A6226B4BA8
:100FC000CDE90132CDE903100A200023684A69A166
:100FD000009037482AF08AF909A926482AF056FBDA
:100FE00000BF00BF09A800231A46194600902548F3
:100FF00029F090FEA1E6000050AB0020202E032037
:1010000049000308525443205461736B00000000F0
:101010004C2D0320A8BD0320F9E20008446F556160
:101020007274205461736B00D4BC032050AA00205A
:10103000FB0B0008417070205461736B204C696792
:10104000687400007CA90020A43100209D1B0008CA
:1010500042656570207461736B000000D030002021
:101060002C2C002039430108464C41534820546140
:10107000736B0000582B0020506167655F53454D2E
:1010800000000000042D0220E48D04200200022054
:10109000983B0520640300202C2D02205C43042093
:1010A000D84C0520905700206C680020EC55052096
:1010B000C0DB0420030002206C3C0520E1C70008CF
:1010C000446973706C61794368205461736B0000EC
:1010D000380400200DEC0008446F576F726B2054E9
:1010E00061736B00002E022059C9000844697370B7
:1010F0006C617944617461205461736B000000007D
:1011000030440420D1CC0008446F4844617461200D
:101110005461736B00000000C056052095CB000899
:10112000446F46696C65205461736B00AC4D0520BB
:10113000C1C60008446973706C61794368332054F8
:1011400061736B00645800200DCE0008446F4F742B
:101150007572205461736B00406900202DCD00082A
:10116000446F4946205461736B00000094DC0420F6
:10117000B96401084772617068205461736B0000A4
:101180007047000010B5002400BF00BFFFF754F8FF
:10119000044600BF01F02AFA00BF0F480F4908605B
:1011A0000F4810490860104810490860104811495C
:1011B0000860114811490860114812490860124836
:1011C0001249086000BF01F02BFA00BF2046FFF76C
:1011D00037F800BF00BF10BD811100082C010220AC
:1011E0001112000830010220131200082001022011
:1011F00015120008240102201712000828010220FD
:1012000019120008340102201B12000838010220C4
:1012100070477047704770477047704700B5ABB074
:10122000FF203949487300BF3848006840F0040087
:10123000364908600846006800F00400019000BFCD
:1012400000BF00BF0846006840F004000860084680
:10125000006800F00400019000BF00BFC8140290B5
:101260004010139002A817F0A9F900BF27481430C6
:10127000006840F0200025491431086008460068E5
:1012800000F02000019000BF00BF40202690022007
:101290002790012028900320299008202A9026A931
:1012A0001B4815F0C7FD8020269008202A9026A90B
:1012B000174815F0BFFD1748174908604FF416404E
:1012C0004860002114488160C16001610C214161C6
:1012D00000218161C161016200200F494862084616
:1012E00019F0BAFC00220421472015F0E0FF472046
:1012F00015F0D0FF08480068006840F0200006495B
:10130000096808602BB000BD50AB002030380240A7
:1013100000080240001401407C77032000B587B02C
:1013200000BF0F48006840F004000D4908600846FF
:10133000006800F00400019000BF00BF022002908E
:101340000120039002200490059002A9054815F0A1
:1013500071FD00220221034815F080FE07B000BD98
:10136000303802400008024010B5044634B1012C68
:1013700007D0022C08D0032C0CD108E017F0EAFEAD
:101380000AE017F0B5FE07E017F0B8FE04E017F02A
:10139000CBFE01E0012000BF00BF10BD10B500F082
:1013A00081F831F053FC02224FF0404100201EF042
:1013B00005FE1BF0D7FFFF2100201EF037FF0021A4
:1013C00001201EF033FF00201EF0F8FE31481BF014
:1013D000B3FB4FF07F401BF0AFFB01201EF0EEFE91
:1013E0004FF07F401BF0A8FBFF2100201EF01EFFE6
:1013F000002101201EF01AFF00201EF0DFFE4FF03A
:101400007F401BF099FB4FF07F4108161EF0EAFE6B
:1014100021481EF0F1FE00F0E3FD0E211F48FEF70B
:101420006FFF58F0B9FD6FF07F400AF0B2FB6FF02C
:101430007F400AF0AEFB58F015FF184908701BF00A
:1014400093F8FFF76BFF00222021154815F006FEE8
:101450002EF0E6F912F030FC01201FF065FE1FF0BF
:101460004DFA1FF0A3FA0D49087113F0E9FB0B497F
:1014700048712EF069FCFFF7D1FE1AF0EDFB14283D
:1014800002D0FF20054908723FF02CFC3FF030FCF1
:1014900010BD0000FF0000FF9800022050AB0020AC
:1014A0000008024010B50120FFF75EFF0446204609
:1014B0002BF004F810BD000010B58EB004464FF4B8
:1014C000807006902020009040010790C00003909B
:1014D000019400200890099005900B900C900D90BD
:1014E0002EF0AEFA10B101200EB010BD41F28832DC
:1014F0006946074816F0C4FE08B10120F4E74FF42E
:1015000048702EF06DF808B10120EDE70020EBE700
:101510002C2E002000B58FB0022000902EF03AFA59
:1015200010B104200FB000BD2EF08AFA08B10120DE
:10153000F8E74FF480700790312001900020089068
:1015400009904FF080700A900020069001200B90C7
:1015500000200C900D900E9041F2883201A90C48A9
:1015600016F08EFE08B10120DCE741F288326946B0
:10157000074816F0B9FF08B10120D3E74FF44870CF
:101580002EF02EF808B10120CCE70020CAE70000B9
:101590002C2E002070B58EB004460D4616464FF432
:1015A00080700690032000904FF480600790C00088
:1015B00003900195002008904FF080700990002062
:1015C00005900A960B900C900D9041F28832694676
:1015D000084816F055FE10B101200EB070BD41F262
:1015E00088322146034816F00CFF08B10120F4E7C9
:1015F0000020F2E72C2E00202DE9F0438FB0814629
:101600000D461746002401E004F58074AC42FBD976
:10161000661BBE4200D93E462C4605EB07084FF438
:1016200080700790322001904FF480600890C000D5
:101630000490002009904FF040700A90002006901E
:101640000C900D900E9000BF02940B962EF0F8F9BE
:1016500018B101200FB0BDE8F08341F2883201A932
:10166000124816F00DFE08B10120F3E741F288326E
:1016700049460E4816F038FF08B10120EAE741F26A
:1016800088302DF0ADFF08B10120E3E73444B144C8
:1016900004F58070404502D9A8EB040001E04FF446
:1016A000807006464445CFD30020D3E72C2E00207F
:1016B00010B50249886D15F0C9F910BD702E0020D3
:1016C00010B50249C86D15F0C1F910BD702E00208B
:1016D00010B504462146024818F0ECFA10BD00008F
:1016E000702E002010B5024818F0D3FA10BD00008B
:1016F000702E002010B5024818F053FC10BD0000F9
:10170000702E002010B500240F48104908600020FA
:10171000486000210D488160C160016141618161C3
:1017200000F018F80A49094818F08CFC00B10124AF
:1017300044B94FF40061054818F07FFD08B1012459
:1017400000E00024204610BD001C0140702E002047
:10175000D02E002030B587B004460D4600BF6A4841
:10176000006840F08000684908600846006800F0A2
:101770008000019000BF00BF00BF634814380068BC
:1017800040F480006049143908600846006800F49D
:101790008000019000BF00BF00BF0846006840F015
:1017A000400008600846006800F04000019000BF5B
:1017B00000BF00BF0846006840F008000860084607
:1017C000006800F00800019000BF00BF20200290D8
:1017D0000120039004900320059002A94B4815F0C6
:1017E00029FB01222021494815F038FC02200390F2
:1017F00001200490032005900B20069040020290E7
:1018000002A9434815F016FBC020029002A93F48E8
:1018100015F010FB0A2006904FF40060029002A918
:101820003B4815F007FB00220521672015F03FFD1E
:10183000672015F02FFD4FF0B05036494860002169
:1018400034488160C1604FF4806101618900416169
:10185000890081612021C1614FF44031016204217E
:101860004162032181624FF40001C162891001636A
:1018700029482849086000BF0846A065846300BF66
:1018800015F0B3F8234815F005FA4FF0B05023498E
:1018900048604021214881600021C1604FF480618F
:1018A000016189004161890081612021C1614FF49A
:1018B0004031016204214162032181624FF4000141
:1018C000C16289100163144878301449086000BF70
:1018D0000846E065846300BF15F087F80F4815F0EF
:1018E000D9F900220621382015F0E1FC382015F046
:1018F000D1FC00220621442015F0D9FC442015F02B
:10190000C9FC07B030BD000044380240000C024062
:1019100000180240282F002010640240882F002069
:101920002DE9FC47044616461F46DDE90A890025D5
:1019300032463B4621460948CDE9008918F0D2FBE2
:1019400000B101253DB90649044818F01CF908B159
:10195000012500E000252846BDE8FC87702E002008
:1019600000E1F5052DE9FC47044616461F46DDE972
:101970000A89002532463B4621460948CDE90089BF
:1019800018F09AFC00B101253DB90649044818F049
:1019900038F908B1012500E000252846BDE8FC879C
:1019A000702E002000E1F50510B592B001200590E1
:1019B000000406900020089002200B9041050C9135
:1019C00019210D914FF4D8710E9102210F91092127
:1019D000109105A817F018FC04460CB100BFFEE7F3
:1019E00016F092FB04460CB100BFFEE70F200090FA
:1019F00002200190002002904FF4A05003904FF479
:101A0000805004900721684617F098FA04460CB1FC
:101A100000BFFEE712B010BD08B59FED503BB0EE21
:101A2000431BB7EE000AB0EE402A002100EE901AE8
:101A300000910188ADF8001081788DF802109DF8B2
:101A400000108907090C9DF8012002F07F0241EA8D
:101A5000C2119DF8022002F07F02114300EE901A9D
:101A60000178C1F38301102959D2DFE801F0080D94
:101A700012171C21262B30353A3F44494E539FED17
:101A8000390AB0EE402A4AE09FED370AB0EE402A0C
:101A900045E09FED360AB0EE402A40E09FED340A63
:101AA000B0EE402A3BE09FED330AB0EE402A36E02C
:101AB0009FED310AB0EE402A31E09FED300AB0EEE2
:101AC000402A2CE09FED2E0AB0EE402A27E09FED41
:101AD0002D0AB0EE402A22E0B7EE000AB0EE402A0E
:101AE0001DE0B2EE040AB0EE402A18E09FED260A8F
:101AF000B0EE402A13E09FED250AB0EE402A0EE03A
:101B00009FED230AB0EE402A09E09FED220AB0EED5
:101B1000402A04E09FED200AB0EE402A00BF00BF3B
:101B2000B8EE603BB7EE004B23EE043BB7EEC24A83
:101B300023EE043BB7EEC30BB7EEC03AB0EE431B47
:101B4000017801F04001402905D1BFEE003B21EEB4
:101B5000033BB0EE431BB7EEC10B08BD0000000015
:101B6000000000005F70893077CC2B3295BFD633F0
:101B7000BD378635ACC5273717B7D1386F12833AD2
:101B80000AD7233CCDCCCC3D0000C84200007A44AB
:101B900000401C460050C347002474490EB502ABF8
:101BA00000220FA1114829F071F817E002A80023C4
:101BB0001A46194600900D4829F0ACF80C4818F068
:101BC00029FE02A8082164230022CDE90010114655
:101BD00010462AF019FB064818F02BFEE6E7000035
:101BE000426565705F53454D00000000A83000203D
:101BF0002037042000B58BB00AA8032100220592EB
:101C0000CDE906210890012080210C22074BCDE967
:101C10000132CDE9031014200023054A05A10090EC
:101C2000074829F063FB0BB000BD00007C75032062
:101C3000B5AE010849434F205461736B00000000AA
:101C4000A874032010B5034607E018780C78A0426A
:101C500001D0002010BD5B1C491C101EA2F1010226
:101C6000F3D10120F6E700BFFEE710B504463920A6
:101C700059F078FAE0B259F099FAC4F3072059F014
:101C800095FAC4F3074059F091FA200E59F08EFAF4
:101C900059F054FA4AF0D6FA10BD2DE9F041074642
:101CA0000E4614463C2059F05DFAF0B259F07EFA27
:101CB000301259F07BFA59F041FA0CB10020208023
:101CC00016E04AF0BFFA05461E2D0ED1384600F048
:101CD00055F905463D2059F045FA59F02FFA2F44A1
:101CE00034B120882844208002E02846BDE8F081F5
:101CF000E7E710B52DF0DEFE08B100F082F83020E5
:101D000000F0CDF810BD10B5312000F0C8F810BDBE
:101D100010B504462146362000F0B3F810BD10B5CA
:101D2000044614B1204600F0DBF8342000F0B7F888
:101D300010BD70B50646304600F0BBF8054685B1CB
:101D40002946304600F024F80446412C09D0142CD2
:101D500001D1432070BD422C01D1B320FAE72046C7
:101D6000F8E77019FFF7DBFFF4E710B504462046EB
:101D700000F0B6F820785C2802D020782F2803D114
:101D80000021642000F011F9322000F088F810BD25
:101D90002DE9F04105460F460026012429E001E027
:101DA000601CC4B2285D5C2805D0285D2F2802D0B5
:101DB000285D0028F4D1285D10B1601CC4B200E099
:101DC0000024A819FFF7D1FF064684B1BC420ED00B
:101DD000412E0AD0142E02D14320BDE8F081422EBC
:101DE00001D1B320F9E73046F7E7264601E0304657
:101DF000F3E7D4E710B50446FF212046FFF7C8FFFC
:101E000010BD10B5222059F0ADF9322009F0D3FEF3
:101E100059F09EF9044659F091F9204610BD2DE97C
:101E2000F04159F095F9044659F092F9054659F0F8
:101E30008FF9064659F08CF9074659F07FF944EAC4
:101E4000052040EA064040EA0760BDE8F08110B591
:101E500004460C2059F086F9204659F0A7F9FFF7FF
:101E6000DEFF10BD70B504460A2059F07BF920460C
:101E700059F09CF959F06CF9054659F05FF928467C
:101E800070BD70B505460C46284659F06BF92046E2
:101E900059F08CF959F052F94AF0D4F970BD10B5E7
:101EA0000446204659F05EF959F048F94AF0CAF95B
:101EB00010BD0246114600E0491C08780028FBD1FD
:101EC00000E0491E08785C2804D008782F2801D04B
:101ED0009142F6D1914200D0491C881AC0B2704795
:101EE0002DE9F0410646012059F03CF959F030F94E
:101EF00043282BDA2B20FFF7B5FF102826DA2F20F6
:101F000059F030F9002059F051F93220FFF7C7FF9E
:101F10000446142C1AD1CF20FFF7A4FF0446ACB11D
:101F20004C20FFF794FF00EB042739464C2000F0CB
:101F30003CF85020FFF78BFF00EB04273946502078
:101F400000F033F80021702000F02FF82F2059F016
:101F500009F93578284659F029F909E0761C3578D1
:101F60005C2D01D02F2D00D10025284659F01EF9F7
:101F7000002DF3D159F0E2F8BDE8F08170B50446C8
:101F80002D2059F0EFF859F0E3F80646054646B122
:101F900000BF207859F00AF9641C701EC0B2061EFA
:101FA000F7D159F0CBF8284670BD70B505460C4600
:101FB0000D2059F0D7F8284659F0F8F8E0B259F05A
:101FC000F5F8C4F3072059F0F1F8C4F3074059F0CD
:101FD000EDF8200E59F0EAF859F0B0F870BD0000A5
:101FE00008B500BF2548006840F004002349086098
:101FF0000846006800F00400009000BF00BF032006
:1020000002230122202100901D481AF053FA0122D8
:1020100020211B4815F022F800BF1848006840F046
:102020000400164908600846006800F004000090AB
:1020300000BF00BF032001230022102100901048A0
:102040001AF038FA00BF0D48006840F001000B4953
:1020500008600846006800F00100009000BF00BF63
:102060000320002301221021009006481AF022FAD2
:102070001EF064FC1EF074FC08BD00003038024005
:1020800000080240000002402DE9FF5F0746884635
:1020900091469A46DDF838B0534C02264FF4DF756E
:1020A000201603214FF4F5737F22CDE90247CDE9D5
:1020B0000010294601200AF09DF9201603214FF453
:1020C000F573FF22CDE90248CDE9001029468120B1
:1020D0000AF090F9201603214FF4F57340F27F12B5
:1020E000CDE90249CDE90010294640F201100AF07D
:1020F00081F9201603214FF4F573C20DCDE9024A90
:10210000CDE90010294640F281100AF073F920163B
:1021100003214FF4F57340F27F22CDE9024BCDE964
:102120000010294640F201200AF064F9F87958BB02
:10213000A81981B23B460022232000941CF07CF8B1
:10214000A81981B243460022902000941CF074F834
:10215000A81981B24B46002240F2271000941CF0CF
:102160006BF8A81981B2534600224FF4D370009443
:102170001CF062F8A81981B25B46002240F22620CA
:1021800000941CF059F82DE0F87901282AD1A819FB
:1021900081B23B460022232000941CF04DF8A81980
:1021A00081B243460022992000941CF045F8A819FA
:1021B00081B24B4600224FF4917000941CF03CF821
:1021C000A81981B2534600224FF4D27000941CF03B
:1021D00033F8A81981B25B46002240F22120009416
:1021E0001CF02AF8BDE8FF9F00A300FF2DE9FC5F6B
:1021F0000746884692469946DDF830B00E9D4FF46A
:10220000DF74022665B901200321CDE9001004F135
:10221000320083B27F22214601200AF0C1F80BE090
:1022200000200321CDE9001004F1320083B27F22A7
:10223000214601200AF0B4F8012D0CD10120032120
:10224000CDE9001004F1320083B2FF222146812043
:102250000AF0A6F80BE000200321CDE9001004F1FC
:10226000320083B2FF22214681200AF099F8022D24
:102270000ED101200321CDE9001004F1320083B218
:1022800040F27F12214640F201100AF089F80DE079
:1022900000200321CDE9001004F1320083B240F2A6
:1022A0007F12214640F201100AF07AF8032D0ED178
:1022B00001200321CDE9001004F1320083B240F285
:1022C000FF12214640F281100AF06AF80DE000206A
:1022D0000321CDE9001004F1320083B240F2FF1275
:1022E000214640F281100AF05BF8042D0ED1012046
:1022F0000321CDE9001004F1320083B240F27F22C5
:10230000214640F201200AF04BF80DE000200321A5
:10231000CDE9001004F1320083B240F27F22214661
:1023200040F201200AF03CF8002F5CD125B9604949
:1023300008161DF057FF03E05E4908161DF052FF16
:10234000A01981B2002342461C201BF01DF8012D6C
:1023500004D1574908161DF045FF03E055490816FA
:102360001DF040FFA01981B20023524690201BF0BF
:102370000BF8022D04D14E4908161DF033FF03E07F
:102380004C4908161DF02EFFA01981B200234A46C1
:1023900040F227101AF0F8FF032D04D14449081623
:1023A0001DF020FF03E0434908161DF01BFFA01994
:1023B00081B200235A464FF4CB701AF0E5FF042D8A
:1023C00004D13B4908161DF00DFF03E039490816FA
:1023D0001DF008FFA01981B200234FF40A700D9A76
:1023E0001AF0D2FF5DE0012F5BD125B93049081604
:1023F0001DF0F8FE03E02F4908161DF0F3FEA019AA
:1024000081B20023424614201AF0BEFF012D04D1F0
:10241000274908161DF0E6FE03E0264908161DF0C0
:10242000E1FEA01981B20023524699201AF0ACFFB8
:10243000022D04D11E4908161DF0D4FE03E01D49EB
:1024400008161DF0CFFEA01981B200234A464FF4B2
:102450008C701AF099FF032D04D1154908161DF050
:10246000C1FE03E0134908161DF0BCFEA01981B29D
:1024700000235A464FF4CE701AF086FF042D04D183
:102480000B4908161DF0AEFE03E00A4908161DF0C0
:10249000A9FEA01981B2002340F226200D9A1AF05D
:1024A00073FF4FF07F4108161DF09CFEBDE8FC9FB6
:1024B00000A300FF800000FF10B500F003F900F05A
:1024C00003F800F0F3F810BD70B50026002018499D
:1024D0000880184908801849086018490860184998
:1024E00008601849086018490860002400BFFDF71B
:1024F000A3FE064600BF00250BE00020104908603F
:1025000000F074F800F08CF80D4800680444681C72
:1025100085B2002DF1D00C48046000200849086005
:102520000849086000BF3046FDF78AFE00BF70BD55
:102530005401002056010020580100205C010020B9
:102540006401002068010020600100200146084667
:10255000044A1268904203D9024A1268801A00E0C5
:10256000002070476001002070B5002500BFFDF716
:1025700063FE054600BF0648046800BF2846FDF715
:102580005FFE00BF2046FFF7E1FF0646304670BD04
:102590006401002070B50025FFF7E6FF044600BF88
:1025A000FDF74AFE054600BF00200449086000BF51
:1025B0002846FDF745FE00BF204670BD640100209F
:1025C00070B5002500BFFDF737FE054600BF064881
:1025D000046800BF2846FDF733FE00BF2046FFF722
:1025E000B5FF0646304670BD6801002010B50948A9
:1025F0000088401C074908800748008818B900F087
:102600009DF80649086004480088401C024908807B
:1026100010BD000054010020560100205801002088
:1026200010B50F480088401E0D49088008460088F4
:10263000A0B900F083F80B490860084600680A4911
:102640000968441A09480068A04201D2074804609A
:1026500007480068A04201D20548046010BD000090
:10266000560100205C010020580100206401002078
:102670006801002010B5002400BF00BFFDF7DCFD9D
:10268000044600BFFFF7B2FF00BF102106481EF04E
:10269000B9FC00BFFFF7C4FF00BF2046FDF7D0FD27
:1026A00000BF00BF10BD0000604E002010B5FFF756
:1026B000E1FF10BD00BFFEE7002001490860704740
:1026C0006801002010B500200249086000F00AF8F7
:1026D00010BD000050010020014908607047000053
:1026E0005001002070B51148046804F0010030B1B9
:1026F00004F0020018B10E480C49091F08600120BF
:10270000FEF732FE05460B48006840F0807009492C
:1027100008600020084948600846006840F0010051
:1027200008602846FFF7D8FF70BD0000B41F00E026
:1027300055CEACC5FCED00E0001000E00149486852
:1027400070470000001000E070B502460C46FF25FF
:10275000FF2309E012F8010B80EA05010648405CFE
:1027600080EA03050548435C201EA4F10106F4B28B
:10277000F0D143EA052070BDF4670D08F4680D0838
:10278000002070470020704770B504460D4602488F
:102790003FF0BFFC002070BD808D062078B5002280
:1027A0000024009412244E4D2C7034246C700124AB
:1027B000AC700024EC702C7101246C712C46002547
:1027C000C4F8065065812823002013E0454C245CA2
:1027D0002E2C05D11446551CEAB20DF8040007E072
:1027E000404C245C24B91446551CEAB20DF8040090
:1027F000441CE0B2984201DA032AE7DB03230020FD
:1028000022E01DF80040241AE4B20DF8004001282F
:102810000DDD441E1DF80450841E1DF804402C4498
:102820001DF800502C1BE4B20DF800400AE000280F
:1028300008DD1DF80050441E1DF804402C1BE4B2B6
:102840000DF80040441CE0B29842DADB002005E0BD
:102850001DF800401C44E3B2441CE0B20328F7DB3F
:1028600000221546521C1DF805401D4D2C730020FA
:1028700015E01C4C245C2E2C09D11446551CEAB2E0
:102880001DF8045000F10D04154E355505E0154CAA
:10289000255C00F10D04124E3555441CE0B29842FF
:1028A000E7DB00F10D04E1B200240D4D6C5400266D
:1028B0000C464D1CE9B20A4D2E5501260C464D1C06
:1028C000E9B2074D2E5500260C464D1CE9B2044DC9
:1028D0002E5501260C464D1CE9B2014D2E5578BDF2
:1028E000C84D0020BFA0042000B533F0D3FA33F068
:1028F00069F9034812F0A2FF01200149487500BDA3
:10290000FE23042000B50346F0EE402AB7EE000A8D
:10291000B0EE403A93F8280000282FDD2A20C05C52
:10292000401CC1B22A20C1542A21C85C4BF0C8FA0D
:10293000B0EE403A2B20C05C01280CD1D3F82D001A
:1029400000EE100AF1EE430A00EEA20A10EE100AA1
:10295000C3F82D0009E0D3F82D0000EE100A03EEB5
:10296000220A10EE100AC3F82D002A21C85CD3F801
:102970002D1000EE101A4BF0D7FA26E02B20C05C89
:1029800001280ED1D3F82D0000EE900AB0EE620AB5
:10299000B2EE041A10EE810A10EE100AC3F82D00F0
:1029A0000DE0D3F82D0000EE900AB0EE620AB2EE10
:1029B000041A00EE810A10EE100AC3F82D00292037
:1029C000C05C401CC1B22920C15401212C20C1543B
:1029D00000BD000010B540F20C410248FDF790FC2C
:1029E00010BD00002E4600202DE9F04FADF2046D21
:1029F00080460D4691461F4600264FF4BD6103A850
:102A0000FDF77EFC0E2205F136010DF2F450FDF7C4
:102A10005EFC95F8216000241EE10020C4EBC40197
:102A200001EB410103AA02EB81010871C4EBC4016F
:102A300001EB410102EB81018870C4EBC40101EBA1
:102A4000410102EB8101C870FE484078C4EBC4012B
:102A500001EB410102EB8101C871287AC4EBC4018A
:102A600001EB410102EB81010872C4EBC40000EBF1
:102A7000400003A901EB80000930C4EBC40101EB65
:102A8000410102EB8101097A4454092C68DAE88E8D
:102A9000C4EBC40101EB410102EB8101C8862A8F1E
:102AA000BDF8FC050830611C00FB012081B2C4EBBD
:102AB000C40000EB400003AA02EB80000187698F8D
:102AC000C4EBC40000EB400002EB80004187AA8FFA
:102AD000BDF8FC050830611C00FB012081B2C4EB8D
:102AE000C40000EB400003AA02EB80008187B5F828
:102AF0004400C4EBC40101EB410102EB8101A1F8E8
:102B000044004620425BBDF8FC050830611C00FB18
:102B1000012081B2C4EBC40000EB400003AA02EB29
:102B20008000A0F84610B5F84A00C4EBC40101EBE0
:102B3000410102EB8101A1F84A004C20425BBDF843
:102B4000FC050830611C00FB012081B2C4EBC4000D
:102B500000EB400003AA02EB8000A0F84C1079E0E3
:102B6000E88EBDF8FE150844C4EBC40101EB410139
:102B700003AA02EB8101C8862A8FBDF8FC15083133
:102B8000A4F1080001FB002081B2C4EBC40000EBFB
:102B9000400003AA02EB80000187688FBDF8FE1594
:102BA000084481B2C4EBC40000EB400002EB80009B
:102BB0004187AA8FBDF8FC150831A4F1080001FB7C
:102BC000002081B2C4EBC40000EB400003AA02EB7A
:102BD00080008187B5F84400BDF8FE150844C4EBB9
:102BE000C40101EB410102EB8101A1F84400462040
:102BF000425BBDF8FC150831A4F1080001FB002080
:102C000081B2C4EBC40000EB400003AA02EB8000D9
:102C1000A0F84610B5F84A00BDF8FE150844C4EB0C
:102C2000C40101EB410102EB8101A1F84A004C20F3
:102C3000425BBDF8FC150831A4F1080001FB00203F
:102C400081B2C4EBC40000EB400003AA02EB800099
:102C5000A0F84C10601CC4B2BC42FFF6DEAE542299
:102C600029467948FDF733FB092E16DA4FF07F40ED
:102C70000116CDE90010BDF8FAA5BDF8FCC50CF1B0
:102C8000080C0CFB06AC1FFA8CF3BDF8F825514676
:102C9000BDF8F40509F0DAFB1FE04FF07F400116A4
:102CA000B24606EBDA7C4FEA6C0BCDE90010BDF8BA
:102CB000FAE5BDF8FCC50CF1080C0CFB0BEC1FFA97
:102CC0008CF3BDF8F8C5BDF8FEB5DC441FFA8CF2F4
:102CD0007146BDF8F40509F0B9FB00BF0024E3E03C
:102CE0000120C4EBC40101EB410103AA02EB810105
:102CF0000871C4EBC40101EB410102EB8101887052
:102D00000020C4EBC40101EB410102EB8101C8705A
:102D1000C4EBC40101EB410102EB810148710120C8
:102D2000C4EBC40101EB410102EB81018871C4EBEA
:102D3000C40000EB400003A901EB80000930C4EBA4
:102D4000C40101EB410102EB8101097A415C2A7A5D
:102D500005F10900805C814217D10120C4EBC40158
:102D600001EB410103AA02EB810148710020C4EB91
:102D7000C40101EB410102EB81018871C4EBC40184
:102D800001EB410102EB8101087199F80000E0B903
:102D9000C4EBC40303EB43030DF10C0C0CEB8303F6
:102DA000B3F84C20C4EBC40303EB43030CEB8303E5
:102DB000B3F84A10C4EBC40303EB43030CEB8300EA
:102DC0004FF07F431BF0E6FB6CE0C4EBC40000EB6C
:102DD000400003A901EB8000808FC4EBC40C0CEB16
:102DE0004C0C8A460AEB8C0C0090BCF83A30C4EBD1
:102DF000C40C0CEB4C0C0AEB8C0CBCF83820C4EB6C
:102E0000C40C0CEB4C0C0AEB8C0CBCF83610C4EB6D
:102E1000C40C0CEB4C0C0AEB8C0009F087FB094846
:102E2000407818BB4FF07F40C4EBC40303EB43036F
:102E3000D4460CEB83030090B3F84620C4EBC403E4
:102E400004E00000E48D04203C8D042003EB4303E8
:102E50000CEB8303B3F84410C4EBC40303EB43034C
:102E60000CEB830001231AF07BFB1BE0C4EBC403D3
:102E700003EB43030DF10C0C0CEB8303B3F84C2074
:102E8000C4EBC40303EB43030CEB8303B3F84A1016
:102E9000C4EBC40303EB43030CEB83004FF07F430D
:102EA0001BF078FB601CC4B2BC42FFF619AF092EC0
:102EB00014DA4FF0FF300090BDF8FAA5BDF8FCC55C
:102EC0000CF1080C0CFB06AC1FFA8CF3BDF8F825CE
:102ED0005146BDF8F40509F003FB1DE04FF0FF304B
:102EE000B24606EBDA7C4FEA6C0B0090BDF8FAE5CF
:102EF000BDF8FCC50CF1080C0CFB0BEC1FFA8CF3B5
:102F0000BDF8F8C5BDF8FEB5DC441FFA8CF2714679
:102F1000BDF8F40509F0E4FA002019F0E1FA804662
:102F20004B460E4A29464046009723F075F8B8F103
:102F3000030F03D0B8F1010F7FF4D0AE3AF01AFAC4
:102F40004B46064A29464046009723F065F84FF065
:102F5000E3FE0DF2046DBDE8F08F00003C8D04200F
:102F60002DE9F04FADF5597D80460D4691461E4640
:102F700000274FF4527103A8FDF7C2F90E2205F1A4
:102F80003601D5A8FDF7A3F995F82170002423E1B7
:102F90000020C4EBC40101EB410103AA02EB810153
:102FA0000871C4EBC40101EB410102EB810188709F
:102FB000C4EBC40101EB410102EB8101C870FE4882
:102FC0004078C4EBC40101EB410102EB8101C871FF
:102FD000287AC4EBC40101EB410102EB81010872C4
:102FE000C4EBC40000EB400003A901EB80000930F2
:102FF000C4EBC40101EB410102EB8101097A4454A5
:10300000B4EB660F68DAE88EC4EBC40101EB410152
:1030100002EB8101C8862A8FBDF85C030830611C71
:1030200000FB012081B2C4EBC40000EB400003AA06
:1030300002EB80000187698FC4EBC40000EB400005
:1030400002EB80004187AA8FBDF85C030830611C49
:1030500000FB012081B2C4EBC40000EB400003AAD6
:1030600002EB80008187B5F84400C4EBC40101EB9A
:10307000410102EB8101A1F844004620425BBDF80A
:103080005C030830611C00FB012081B2C4EBC4006A
:1030900000EB400003AA02EB8000A0F84610B5F850
:1030A0004A00C4EBC40101EB410102EB8101A1F82C
:1030B0004A004C20425BBDF85C030830611C00FBF9
:1030C000012081B2C4EBC40000EB400003AA02EB74
:1030D0008000A0F84C107DE0E88EBDF85E13084437
:1030E000C4EBC40101EB410103AA02EB8101C886D4
:1030F0002A8FBDF85C030830611CA1EB660100FB60
:10310000012081B2C4EBC40000EB400003AA02EB33
:1031100080000187688FBDF85E13084481B2C4EB5C
:10312000C40000EB400002EB80004187AA8FBDF88D
:103130005C030830611CA1EB660100FB012081B239
:10314000C4EBC40000EB400003AA02EB80008187BF
:10315000B5F84400BDF85E130844C4EBC40101EBAC
:10316000410102EB8101A1F844004620425BBDF819
:103170005C030830611CA1EB660100FB012081B2F9
:10318000C4EBC40000EB400003AA02EB8000A0F8EF
:103190004610B5F84A00BDF85E130844C4EBC401FC
:1031A00001EB410102EB8101A1F84A004C20425B96
:1031B000BDF85C030830611CA1EB660100FB012037
:1031C00081B2C4EBC40000EB400003AA02EB800014
:1031D000A0F84C10601CC4B2B442FFF6D9AE542221
:1031E00029467648FDF773F8B7EBA60F16DA4FF0CD
:1031F0007F400116CDE90010BDF85AA3BDF85CC3AD
:103200000CF1080C0CFB07AC1FFA8CF3BDF858232B
:103210005146BDF8540309F019F91FE04FF07F4003
:103220000116BA4607EBDA7C4FEA6C0BCDE90010C9
:10323000BDF85AE3BDF85CC30CF1080C0CFB0BECB9
:103240001FFA8CF3BDF858C3BDF85EB3DC441FFA17
:103250008CF27146BDF8540309F0F8F800BF002461
:103260009EE00120C4EBC40101EB410103AA02EB83
:1032700081010871C4EBC40101EB410102EB810142
:1032800088700020C4EBC40101EB410102EB810115
:10329000C870C4EBC40101EB410102EB810148712C
:1032A0000120C4EBC40101EB410102EB81018871F3
:1032B000C4EBC40000EB400003A901EB800009301F
:1032C000C4EBC40101EB410102EB8101097A415CCD
:1032D0002A7A05F10900805C814217D10120C4EBF4
:1032E000C40101EB410103AA02EB810148710020F6
:1032F000C4EBC40101EB410102EB81018871C4EB15
:10330000C40101EB410102EB81010871C4EBC4006F
:1033100000EB400003A901EB8000808FC4EBC40CDC
:103320000CEB4C0C8A460AEB8C0C0090BCF83A3043
:10333000C4EBC40C0CEB4C0C0AEB8C0CBCF8382026
:10334000C4EBC40C0CEB4C0C0AEB8C0CBCF8361028
:10335000C4EBC40C0CEB4C0C0AEB8C0009F0E6F847
:1033600099F80000D0B9C4EBC40303EB4303D4467F
:103370000CEB8303B3F84C20C4EBC40303EB43030F
:103380000CEB8303B3F84A10C4EBC40303EB430311
:103390000CEB83004FF07F431BF082FC601CC4B237
:1033A000B442FFF65EAFB7EB660F19DA4FF0FF30AD
:1033B0000090BDF85AA303E0E48D0420D4A80020B7
:1033C000BDF85CC30CF1080C0CFB07AC1FFA8CF3C6
:1033D000BDF858235146BDF8540309F081F81DE0AB
:1033E0004FF0FF30BA4607EBDA7C4FEA6C0B0090E7
:1033F000BDF85AE3BDF85CC30CF1080C0CFB0BECF8
:103400001FFA8CF3BDF858C3BDF85EB3DC441FFA55
:103410008CF27146BDF8540309F062F8002019F0EF
:103420005FF880464B460E4A29464046009622F0F9
:103430009FFEB8F1030F03D0B8F1010F7FF40FAF77
:1034400039F0EEFF4B46064A29464046009622F0E8
:103450008FFE4FF013FE0DF5597DBDE8F08F000093
:10346000D4A800202DE9F047ADF5447D80460D46F7
:1034700016461F464FF000094FF43D7103A8FCF7B4
:103480003FFF002439E00020C4EBC40101EB4101FF
:1034900003AA02EB81010871C4EBC40101EB4101F5
:1034A00002EB81018870C4EBC40101EB410102EB26
:1034B0008101C870F5484078C4EBC40101EB4101BB
:1034C00002EB8101C871287AC4EBC40101EB410110
:1034D00002EB81010872C4EBC40000EB400003A9B9
:1034E00001EB80000930C4EBC40101EB410102EBA8
:1034F0008101097A4454601CC4B2BC42C3DB54222B
:103500002946E348FCF7E3FE00BF0E2205F1360131
:10351000C0A8FCF7DCFE95F821904FF07F40011623
:10352000CDE90010BDF806A3BDF808C30CF1080CE6
:103530000CFB09AC1FFA8CF3BDF804235146BDF80F
:10354000000308F083FF002457E10120C4EBC4010D
:1035500001EB410103AA02EB81010871C4EBC40134
:1035600001EB410102EB810188700020C4EBC40132
:1035700001EB410102EB8101C870C4EBC40101EB16
:10358000410102EB810148710120C4EBC40101EB50
:10359000410102EB81018871E88EC4EBC40101EBAB
:1035A000410102EB8101C8862A8FBDF8080308306B
:1035B000611C00FB012081B2C4EBC40000EB4000A1
:1035C00003AA02EB80000187698FC4EBC40000EB03
:1035D000400002EB80004187AA8FBDF80803083045
:1035E000611C00FB012081B2C4EBC40000EB400071
:1035F00003AA02EB80008187B5F84400C4EBC40144
:1036000001EB410102EB8101A1F844004620425B3D
:10361000BDF808030830611C00FB012081B2C4EB37
:10362000C40000EB400003AA02EB8000A0F84610A3
:10363000B5F84A00C4EBC40101EB410102EB810182
:10364000A1F84A004C20425BBDF808030830611C19
:1036500000FB012081B2C4EBC40000EB400003AAD0
:1036600002EB8000A0F84C10C4EBC40000EB40005B
:1036700003A901EB80000930C4EBC40101EB410157
:1036800002EB8101097A415C2A7A05F10900805C2C
:10369000814217D10120C4EBC40101EB410103AA0F
:1036A00002EB810148710020C4EBC40101EB410130
:1036B00002EB81018871C4EBC40101EB410102EB13
:1036C00081010871C4EBC40000EB400003A901EBC9
:1036D0008000808FC4EBC40C0CEB4C0C8A460AEBC8
:1036E0008C0C0090BCF83A30C4EBC40C0CEB4C0CC6
:1036F0000AEB8C0CBCF83820C4EBC40C0CEB4C0C63
:103700000AEB8C0CBCF83610C4EBC40C0CEB4C0C64
:103710000AEB8C0008F00AFF3078012810D03078CE
:10372000042801D1012000E000203178052901D1D1
:10373000012100E00021084310B9307808281CD18D
:10374000C4EBC40303EB43030DF10C0C0CEB83033C
:10375000B3F84C20C4EBC40303EB43030CEB83032B
:10376000B3F84A10C4EBC40303EB43030CEB830030
:103770004FF07F431BF078FB3DE044484078F0B9C0
:103780004FF07F40C4EBC40303EB43030DF10C0C7B
:103790000CEB83030090B3F84620C4EBC40303EBA7
:1037A00043030CEB8303B3F84410C4EBC40303EBF3
:1037B00043030CEB830001231AF032FB1BE0C4EB44
:1037C000C40303EB43030DF10C0C0CEB8303B3F8C0
:1037D0004C20C4EBC40303EB43030CEB8303B3F8AB
:1037E0004A10C4EBC40303EB43030CEB83004FF01C
:1037F0007F431BF039FB601CC4B2BC42FFF6A5AE90
:103800004FF0FF300090BDF806A3BDF808C30CF1DF
:10381000080C0CFB09AC1FFA8CF3BDF804235146CD
:10382000BDF8000308F05CFE002018F059FE804649
:103830003346174A29464046009724F071F9B8F1FB
:10384000030F03D0B8F1010F7FF45FAE3078C0EB07
:10385000C00000EB40000F4901EB800009303178D7
:10386000C1EBC10101EB41010A4A02EB8101097A76
:10387000405C0649487030F049FA39F0BBFF1CF053
:10388000BDFE0DF5447DBDE8F0870000E48D042009
:10389000C8660020646000202DE9F047ADF5447D46
:1038A00080460D4616461F464FF000094FF43D7105
:1038B00003A8FCF725FD002439E00020C4EBC40177
:1038C00001EB410103AA02EB81010871C4EBC401C1
:1038D00001EB410102EB81018870C4EBC40101EBF3
:1038E000410102EB8101C870ED484078C4EBC4018E
:1038F00001EB410102EB8101C871287AC4EBC401DC
:1039000001EB410102EB81010872C4EBC40000EB42
:10391000400003A901EB80000930C4EBC40101EBB6
:10392000410102EB8101097A4454601CC4B2BC42DB
:10393000C3DB54222946DB48FCF7C9FC00BF0E223A
:1039400005F13601C0A8FCF7C2FC95F821904FF0B4
:103950007F400116CDE90010BDF806A3BDF808C3ED
:103960000CF1080C0CFB09AC1FFA8CF3BDF8042316
:103970005146BDF8000308F069FD002457E101201D
:10398000C4EBC40101EB410103AA02EB8101087100
:10399000C4EBC40101EB410102EB810188700020FE
:1039A000C4EBC40101EB410102EB8101C870C4EB1F
:1039B000C40101EB410102EB810148710120C4EB1C
:1039C000C40101EB410102EB81018871E88EC4EB77
:1039D000C40101EB410102EB8101C8862A8FBDF8C9
:1039E00008030830611C00FB012081B2C4EBC40055
:1039F00000EB400003AA02EB80000187698FC4EB53
:103A0000C40000EB400002EB80004187AA8FBDF8A4
:103A100008030830611C00FB012081B2C4EBC40024
:103A200000EB400003AA02EB80008187B5F8440058
:103A3000C4EBC40101EB410102EB8101A1F8440098
:103A40004620425BBDF808030830611C00FB0120E2
:103A500081B2C4EBC40000EB400003AA02EB80007B
:103A6000A0F84610B5F84A00C4EBC40101EB4101CF
:103A700002EB8101A1F84A004C20425BBDF808032B
:103A80000830611C00FB012081B2C4EBC40000EBD4
:103A9000400003AA02EB8000A0F84C10C4EBC40065
:103AA00000EB400003A901EB80000930C4EBC40126
:103AB00001EB410102EB8101097A415C2A7A05F1AF
:103AC0000900805C814217D10120C4EBC40101EBE5
:103AD000410103AA02EB810148710020C4EBC4013B
:103AE00001EB410102EB81018871C4EBC40101EBE0
:103AF000410102EB81010871C4EBC40000EB4000FE
:103B000003A901EB8000808FC4EBC40C0CEB4C0CC0
:103B10008A460AEB8C0C0090BCF83A30C4EBC40C1B
:103B20000CEB4C0C0AEB8C0CBCF83820C4EBC40C2E
:103B30000CEB4C0C0AEB8C0CBCF83610C4EBC40C30
:103B40000CEB4C0C0AEB8C0008F0F0FC30780128F0
:103B500010D03078042801D1012000E00020317815
:103B6000052901D1012100E00021084310B9307876
:103B700008281CD1C4EBC40303EB43030DF10C0C68
:103B80000CEB8303B3F84C20C4EBC40303EB4303F7
:103B90000CEB8303B3F84A10C4EBC40303EB4303F9
:103BA0000CEB83004FF07F431BF05EF93DE03C4897
:103BB0004078F0B94FF07F40C4EBC40303EB4303FC
:103BC0000DF10C0C0CEB83030090B3F84620C4EB12
:103BD000C40303EB43030CEB8303B3F84410C4EBBF
:103BE000C40303EB43030CEB830001231AF018F921
:103BF0001BE0C4EBC40303EB43030DF10C0C0CEB13
:103C00008303B3F84C20C4EBC40303EB43030CEB76
:103C10008303B3F84A10C4EBC40303EB43030CEB78
:103C200083004FF07F431BF01FF9601CC4B2BC42FD
:103C3000FFF6A5AE4FF0FF300090BDF806A3BDF82B
:103C400008C30CF1080C0CFB09AC1FFA8CF3BDF88F
:103C500004235146BDF8000308F042FC002018F090
:103C60003FFC804633460F4A29464046009723F0E2
:103C700057FFB8F1030F03D0B8F1010F7FF45FAE27
:103C800039F024FC3346074A29464046009723F082
:103C900047FF4FF007FD0DF5447DBDE8F0870000BC
:103CA000E48D04201C6700202DE9F047ADF5447D2C
:103CB00007460D4690461E464FF000094FF43D71F1
:103CC00003A8FCF71DFB002439E00020C4EBC4016D
:103CD00001EB410103AA02EB81010871C4EBC401AD
:103CE00001EB410102EB81018870C4EBC40101EBDF
:103CF000410102EB8101C870D3484078C4EBC40194
:103D000001EB410102EB8101C871287AC4EBC401C7
:103D100001EB410102EB81010872C4EBC40000EB2E
:103D2000400003A901EB80000930C4EBC40101EBA2
:103D3000410102EB8101097A4454601CC4B2B442CF
:103D4000C3DB54222946C148FCF7C1FA00BF0E224A
:103D500005F13601C0A8FCF7BAFA95F821904FF0AA
:103D60007F400116CDE90010BDF806A3BDF808C3D9
:103D70000CF1080C0CFB09AC1FFA8CF3BDF8042302
:103D80005146BDF8000308F061FB002425E1012045
:103D9000C4EBC40101EB410103AA02EB81010871EC
:103DA000C4EBC40101EB410102EB810188700020EA
:103DB000C4EBC40101EB410102EB8101C870C4EB0B
:103DC000C40101EB410102EB810148710120C4EB08
:103DD000C40101EB410102EB81018871E88EC4EB63
:103DE000C40101EB410102EB8101C8862A8FBDF8B5
:103DF00008030830611C00FB012081B2C4EBC40041
:103E000000EB400003AA02EB80000187698FC4EB3E
:103E1000C40000EB400002EB80004187AA8FBDF890
:103E200008030830611C00FB012081B2C4EBC40010
:103E300000EB400003AA02EB80008187B5F8440044
:103E4000C4EBC40101EB410102EB8101A1F8440084
:103E50004620425BBDF808030830611C00FB0120CE
:103E600081B2C4EBC40000EB400003AA02EB800067
:103E7000A0F84610B5F84A00C4EBC40101EB4101BB
:103E800002EB8101A1F84A004C20425BBDF8080317
:103E90000830611C00FB012081B2C4EBC40000EBC0
:103EA000400003AA02EB8000A0F84C10C4EBC40051
:103EB00000EB400003A901EB80000930C4EBC40112
:103EC00001EB410102EB8101097A415C2A7A05F19B
:103ED0000900805C814217D10120C4EBC40101EBD1
:103EE000410103AA02EB810148710020C4EBC40127
:103EF00001EB410102EB81018871C4EBC40101EBCC
:103F0000410102EB81010871C4EBC40000EB4000E9
:103F100003A901EB8000808FC4EBC40C0CEB4C0CAC
:103F20008A460AEB8C0C0090BCF83A30C4EBC40C07
:103F30000CEB4C0C0AEB8C0CBCF83820C4EBC40C1A
:103F40000CEB4C0C0AEB8C0CBCF83610C4EBC40C1C
:103F50000CEB4C0C0AEB8C0008F0E8FA3A4840787D
:103F6000E8B94FF07F40C4EBC40303EB4303D446EE
:103F70000CEB83030090B3F84620C4EBC40303EBBF
:103F800043030CEB8303B3F84410C4EBC40303EB0B
:103F900043030CEB8300012319F060FE1BE0C4EB2C
:103FA000C40303EB43030DF10C0C0CEB8303B3F8D8
:103FB0004C20C4EBC40303EB43030CEB8303B3F8C3
:103FC0004A10C4EBC40303EB43030CEB83004FF034
:103FD0007F431AF065FE601CC4B2B442FFF6D7AE50
:103FE0004FF0FF300090BDF806A3BDF808C30CF1F8
:103FF000080C0CFB09AC1FFA8CF3BDF804235146E6
:10400000BDF8000308F06CFA002018F069FA0746C2
:1040100043460E4A29463846009622F0A9F8032F57
:1040200002D0012F7FF493AE39F0FAF94346074AE4
:1040300029463846009622F09BF84FF01FF80DF500
:10404000447DBDE8F0870000E48D042028A900200D
:104050009FED0E2AF0EE421A9FED0D2AB0EE421AA5
:1040600030EE602AB0EE421A9FED0A2AB4EEC21A70
:10407000F1EE10FA08DB9FED052AB4EEC21AF1EE5C
:1040800010FA01D8002070470120FCE7BD378635C3
:1040900000000000BD3786B500B50146D1F8050027
:1040A00000EE900AD1F8090000EE100AFFF7D0FFE9
:1040B00000BD000010B5214AD27A204B9B7A9A426B
:1040C00007DA1E4A927A1D4BDA7201221C4B1A70D3
:1040D0002CE01A4AD17A927A184BDA720122184BE4
:1040E0001A7008461DE0174A52F82020134B9B7A9D
:1040F000144C54F82330B2FBF3F403FB142272B9CE
:10410000104A52F820200D4B9B7A0E4C54F8233065
:10411000B2FBF3F20A4B1A70084AD07205E0421E55
:10412000D0B2064A927A8242DDDB00BF034AD37ADC
:10413000054A147A0932135510BD0000E48D04209D
:10414000780100207C0100203084042070B50446F2
:1041500000254BE1092C7CDD601C40F21D11484319
:10416000FE4901EBC000C5EB451101EB851110F8CC
:104170002110601C40F2DB125043F94A12F8200073
:10418000814206D09FEDF70AF74800EB840080EDEE
:10419000000AF54800EB840090ED000AB5EEC00A75
:1041A000F1EE10FA2BD10A2C13D1611CC1EBC10224
:1041B00002EB4111ED4A02EBC10105EB850202EB76
:1041C000C50201EB8201081D0D22E949FCF77FF8C9
:1041D00015E00B2C13D1611CC1EBC10202EB4111A4
:1041E000E24A02EBC10105EB850202EBC50201EBDD
:1041F0008201081D0D22DE496831FCF768F8601C59
:1042000040F2DB114843D64911F82010601CC0EB86
:10421000C00202EB4010D54A02EBC00005EB85025C
:1042200002EBC50200EB820080F82E10601C40F209
:10423000DB114843CA4911F82010601C40F21D12DE
:104240005043C64A02EBC000C5EB451202EB851293
:1042500000E002E000F82210C6E0092C5FD140F235
:104260001D106043BD4901EBC000C5EB451101EBDA
:10427000851110F8211040F2DB106043B84A12F8A3
:104280002000814206D09FEDB70AB74800EB8400BA
:1042900080ED000AB44800EB840090ED000AB5EE12
:1042A000C00AF1EE10FA12D1C4EBC40101EB4411C3
:1042B000AE4A02EBC10105EB850202EBC50201EB40
:1042C0008201081D0D22AA496839FCF700F840F266
:1042D000DB106043A24911F82000C4EBC40101EBDC
:1042E0004411A24A02EBC10105EB850202EBC502B3
:1042F00001EB820181F82E0040F2DB106043984907
:1043000011F8201040F21D106043944A02EBC000E7
:10431000C5EB451202EB851200F8221064E040F272
:104320001D1060438D4901EBC000C5EB451101EB49
:10433000851110F8211040F2DB106043884A12F812
:104340002000814206D09FED870A874800EB840059
:1043500080ED000A844800EB840090ED000AB5EE81
:10436000C00AF1EE10FA18D1C4EBC40202EB4412F9
:104370007E4B03EBC20205EB850303EBC50302EBA7
:104380008302101D04EB840202EBC403794A02EBA2
:104390008302111D0D22FBF79AFF40F2DB106043F0
:1043A0006F4911F82000C4EBC40101EB44116F4ABE
:1043B00002EBC10105EB850202EBC50201EB8201B4
:1043C00081F82E0040F2DB106043654911F820109F
:1043D00040F21D106043614A02EBC000C5EB45127C
:1043E00002EB851200F82210681CC5B2062DFFF6FC
:1043F000B1AE092C7DDD0A2C4AD1601CC0EBC00196
:1044000001EB4010594901EBC000D0F8090000EE63
:10441000100A58486A38D0F8170300EE900AB4EE34
:10442000E00AF1EE10FA0CD8611CC1EBC10202EBFC
:1044300041114E4A02EBC10034224D49091FFBF7DE
:1044400046FF601CC0EBC00101EB4010474901EB87
:10445000C000D0F83D0000EE100A46486A38D0F897
:10446000170300EE900AB4EEE00AF1EE10FA0EDB4C
:10447000611CC1EBC10202EB41113C4A02EBC101DC
:1044800001F1340034223A49091FFBF720FF02E111
:104490000B2CFCD1601CC0EBC00101EB4010334978
:1044A00001EBC000D0F8090000EE100A31486A386C
:1044B000D0F87F0300EE900AB4EEE00AF1EE10FAB5
:1044C0000CD8611CC1EBC10202EB4111274A02EB7F
:1044D000C100342226496431FBF7F9FE601CC0EBB1
:1044E000C00101EB4010214901EBC000D0F83D00B4
:1044F00000E01CE000EE100A1E486A38D0F87F0386
:1045000000EE900AB4EEE00AF1EE10FA0EDB611C48
:10451000C1EBC10202EB4111144A02EBC10101F1EE
:104520003400342212496431FBF7D1FEB3E0092C88
:1045300053D1C4EBC40000EB44100C4901EBC000A4
:10454000D0F8090000EE100A0A486A38D0F8AF0225
:1045500000EE900AB4EEE00A0EE000007CA002201B
:10456000004002200000000044140320741D0320BA
:1045700052210420AA1E0420F1EE10FA0AD8C4EB3E
:10458000C40101EB4411FE4A02EBC1003422FD4993
:10459000FBF79DFEC4EBC40000EB4410F84901EBAF
:1045A000C000D0F83D0000EE100AF748D0F8AF0286
:1045B00000EE900AB4EEE00AF1EE10FA6BDBC4EB09
:1045C000C40101EB4411EE4A02EBC10101F13400D8
:1045D0003422EC49FBF77BFE5DE0C4EBC40000EB4A
:1045E0004410E74901EBC000D0F8090000EE100AC2
:1045F00004EB840000EBC401E3486A3000EB810067
:10460000D0F8090000EE900AB4EEE00AF1EE10FADC
:1046100011D804EB840202EBC403DB4A6A3202EBDA
:104620008301C4EBC40202EB4412D54B03EBC2007E
:104630003422FBF74CFEC4EBC40000EB4410D0491D
:1046400001EBC000D0F83D0000EE100A04EB84003E
:1046500000EBC401CC486A3000EB8100D0F80900BF
:1046600000EE900AB4EEE00AF1EE10FA13DB04EB70
:10467000840202EBC403C44A6A3202EB8301C4EB36
:10468000C40202EB4412BE4B03EBC20202F134003F
:104690003422FBF71CFE092C7EDD601CC0EBC00140
:1046A00001EB4010B64901EBC000D0F8710000EEFC
:1046B000100AB64800EB840090ED001AC0EE010A23
:1046C000601CC0EBC00101EB4010AD4901EBC00024
:1046D000D0F8710000EE100A70EE600A601CC0EBAA
:1046E000C00101EB4010A64901EBC000D0F8090061
:1046F00000EE100AA54800EB840090ED001AC0EE11
:10470000011A30EEA10A10EE101A601CC0EBC002B4
:1047100002EB40109A4A02EBC000C0F87110601C16
:10472000C0EBC00101EB4010114601EBC000D0F816
:10473000090000EE100A601CC0EBC00101EB401044
:10474000114601EBC000D0F83D0000EE900A30EEBB
:10475000600A10EE101A601CC0EBC00202EB4010A1
:10476000874A02EBC000C0F8A510601CC0EBC00176
:1047700001EB4010114601EBC000D0F8090000EE3B
:10478000100A601CC0EBC00101EB4010114601EBA8
:10479000C000D0F8710000E037E000EE900A30EE83
:1047A000600A10EE101A601CC0EBC00202EB401051
:1047B000734A02EBC000C0F8D910C4EBC40000EB90
:1047C0004410114601EBC000D0F83D0000EE100A85
:1047D000F1EE400A601CC0EBC00101EB4010114635
:1047E00001EBC000D0F8710000EE100A30EE800A34
:1047F00010EE101A601CC0EBC00202EB4010604AC1
:1048000002EBC000C0F80D11A0E0C4EBC40000EB47
:1048100044105B4901EBC000D0F8710000EE100AB3
:104820005A4800EB840090ED001AC0EE010AC4EB78
:10483000C40000EB441001EBC000D0F8710000EEA2
:10484000100A70EE600AC4EBC40000EB441001EBE8
:10485000C000D0F8090000EE100A4C4800EB8400BC
:1048600090ED001AC0EE011A30EEA10A10EE101AF7
:10487000C4EBC40000EB4410414A02EBC000C0F896
:104880007110C4EBC40000EB4410114601EBC000F2
:10489000D0F8090000EE100AC4EBC40000EB44108D
:1048A00001EBC000D0F83D0000EE900A30EE600A47
:1048B00010EE101AC4EBC40000EB441002EBC00071
:1048C000C0F8A510C4EBC40000EB4410114601EB86
:1048D000C000D0F8090000EE100AC4EBC40000EBE1
:1048E000441001EBC000D0F8710000EE900A30EEE9
:1048F000600A10EE101AC4EBC40000EB441002EB87
:10490000C000C0F8D910C4EBC40000EB441011463D
:1049100001EBC000D0F83D0000EE100AF1EE400AB5
:10492000C4EBC40000EB441001EBC000D0F87100F0
:1049300000EE100A30EE800A10EE101AC4EBC4002C
:1049400000EB441002EBC000C0F80D110025C5E0DB
:10495000092C68DD611CC1EBC10202EB4111084A60
:1049600002EBC10105EB850202EBC50201EB8200FF
:1049700049F07AFF621CC2EBC20303EB421207E06C
:10498000741D0320E6200420401E0420441403204C
:10499000544B03EBC20205EB850303EBC50302EBAB
:1049A000830202F11101621C40F21D135A434E4B67
:1049B00003EBC202C5EB451303EB851302EB830245
:1049C00002F19A000D22FBF782FC601CC0EBC001D3
:1049D00001EB4010434901EBC00005EB850101EB01
:1049E000C50100EB8100827F601C40F21D1148432D
:1049F0003D4901EBC000C5EB451101EB851100EB12
:104A00008101491C601C40F21D135843364B03EBD7
:104A1000C000C5EB451303EB851310F8230001EB31
:104A20000010027058E0C4EBC40101EB44112D4AA0
:104A300002EBC10105EB850202EBC50201EB82002E
:104A400049F012FFC4EBC40202EB4412254B03EB06
:104A5000C20205EB850303EBC50302EB830202F1FF
:104A6000110140F21D1262431F4B03EBC202C5EB62
:104A7000451303EB851302EB830202F19A000D222A
:104A8000FBF725FCC4EBC40000EB4410154901EB17
:104A9000C00005EB850101EBC50100EB8100827FC1
:104AA00040F21D106043104901EBC000C5EB4511F9
:104AB00001EB851100EB8100401C40F21D116143A8
:104AC000094B03EBC101C5EB451303EB851311F84B
:104AD000231000EB01100270681CC5B2062DFFF612
:104AE00037AF70BD741D03207CA00220014601B9C0
:104AF0000120002003E00A2291FBF2F1401C002972
:104B0000F9D170472DE9F74F88B0824690463C2690
:104B100020270020059006900790FE4948700870F5
:104B20005422FD480999FBF7D2FBFC4C04F6C46BF8
:104B300042465046099900F025FB502698F800009F
:104B400001281FD1F64890F85210F648027A093031
:104B500081540D22F449C730FBF7B9FB0D22F2490D
:104B6000A931F248FBF7B3FB0D22F149EF4854306D
:104B7000FBF7ADFB0D22EE49A931EC48A830FBF75D
:104B8000A6FB44E098F80000801EE5494831095C26
:104B9000E448027A0930815498F80000801E00EB46
:104BA000800202EBC002E048823811180D22DF4873
:104BB0005438FBF78CFB98F80000801E00EB800255
:104BC00002EBC002D848273011180D22D748FBF756
:104BD0007EFB98F80000801E00EB800202EBC00212
:104BE000D348823811180D22D0485430FBF76FFBA0
:104BF00098F80000801E00EB800202EBC002CC4857
:104C0000273011180D22C948A830FBF760FB00BF00
:104C10001827C8480022238F9B1C03EB47039BB235
:104C2000CDE9012000930390E08E3044503083B2F0
:104C3000208F801C384482B2E08E304481B2B94863
:104C400007F03EFABB490023208F801C07EB870C3E
:104C5000604480B2CDE9013103910090208F801C27
:104C600000EB870082B2E08E3044823083B2E08E67
:104C7000304481B2AD487C3807F022FAAD490023B8
:104C8000208F801C07EB870C604480B2CDE9013196
:104C900003910090E08E06EB460C60446E3083B2C8
:104CA000208F801C00EB870082B2E08E06EB460C62
:104CB0006044143881B29D48283807F001FA9D49B4
:104CC0000023208F801C07EB470C00EB4C0080B2C8
:104CD000CDE9013103910090208F801C07EB870CF8
:104CE000604482B2E08E3044823083B2E08E304441
:104CF00081B28E482C3007F0E3F98E490023208FD3
:104D0000801C07EB470C00EB4C0080B2CDE9013171
:104D100003910090E08E06EB460C60446E3083B247
:104D2000208F801C07EB870C604482B2E08E06EB7C
:104D3000460C6044143881B27C48803007F0C0F9DA
:104D40007C490023BBF83C00001F80B2CDE9013153
:104D500003910090E08E30443C3083B2BBF83800C1
:104D6000001F82B2E08E304481B27048D43007F028
:104D7000A7F970490023BBF83C00001F80B2CDE9C1
:104D8000013103910090E08E06EB460C60447830D0
:104D900083B2E08E06EB460C604481B2BBF838006B
:104DA000001F82B2644807F08BF9202763481BF08C
:104DB00023FA228F921C07EB87031A4491B2E28EEA
:104DC000921C32440F3290B25D4A19F0BBFA0025B2
:104DD000DDE04FF00009D4E0012D01D0022D49D1D2
:104DE000C5EBC50101EB41014E4A02EBC101C9EB24
:104DF000C90202EB420201EB820101F1280005A980
:104E000025F016F84D4903C9C5EBC50303EB430371
:104E1000DFF810C10CEBC303C9EBC90C0CEB4C0C55
:104E200003EB8C03CDE900011B8F9B1C9AB2C5EBF1
:104E3000C50303EB4303DFF8ECC00CEBC303C9EB82
:104E4000C90C0CEB4C0C03EB8C03DB8E9B1C99B256
:104E5000C5EBC50303EB4303DFF8C8C00CEBC3038A
:104E6000C9EBC90C0CEB4C0C03EB8C0005AB18F038
:104E7000BDF882E02A48407898BBC5EBC50303EB38
:104E80004303DFF8A0C00CEBC303C9EBC90C0CEB68
:104E90004C0C03EB8C031B8F9B1C9AB2C5EBC50318
:104EA00003EB4303DFF87CC00CEBC303C9EBC90C75
:104EB0000CEB4C0C03EB8C03DB8E0F3399B2C5EB80
:104EC000C50303EB4303DFF85CC00CEBC303C9EB82
:104ED000C90C0CEB4C0C03EB8C00012318F022FCEA
:104EE0004BE0FFE7C5EBC50303EB4303DFF834C03A
:104EF0000CEBC303C9EBC90C0CEB4C0C03EB8C03A0
:104F00001B8F9B1C9AB2C5EBC50303EB4303DFF871
:104F100014C017E071000020EA26002074C40420A9
:104F2000E48D0420301600202D9104205417002019
:104F30007F920420303030C07C1800207C0000209C
:104F40000DB205080CEBC303C9EBC90C0CEB4C0C00
:104F500003EB8C03DB8E0F3399B2C5EBC50303EB78
:104F60004303DFF8FCC10CEBC303C9EBC90C0CEB2A
:104F70004C0C03EB8C0019F0F1FB09F1010000F07F
:104F8000FF09B9F1020FFFF627AF681CC5B2042D67
:104F9000FFF61FAF002017F0A3FA8246022004217B
:104FA000704B714ACDE90010504609991EF03EFD44
:104FB000BAF1030F03D16B480078032803D0BAF18C
:104FC000010F7FF425AE38F045F902200421654B2E
:104FD000654ACDE90010504609991EF027FD4FF0B3
:104FE0007F401BF017F96148B0F8E0216048B0F845
:104FF0003002101A463083B25D48B0F830021038E3
:1050000081B240F27D2202201AF074FC4FF0FF3092
:105010001BF000F9BAF1030F57D15248007803286A
:10502000FAD1504840780028F6D198F800000128BD
:105030004CD1002547E04A48017A0930415C4D488F
:10504000415505EB850101EBC50200F27F215018A7
:105050000D224349D031FBF73AF905EB850101EB0D
:10506000C502454950180D224449FBF730F905EBBC
:10507000850101EBC5024049A93150180D223F4975
:105080005431FBF724F905EB850101EBC5023C49DE
:1050900050180D223949A831FBF719F93548425DFE
:1050A000681CC0EB8010324901EBC00000F25910BF
:1050B000691CC1EB81112E4B03EBC10191F8581112
:1050C0004254681CC5B20B2DB5DB41E02448017A7F
:1050D0000930425C98F80000801E26490A5498F86E
:1050E0000010891E01EB810202EBC1022249A9399D
:1050F00050180D2221495439FBF7E9F898F80010AF
:10510000891E01EB810202EBC1021B4950180D22DE
:105110001A49FBF7DCF898F80010891E01EB8102B0
:1051200002EBC1021449A93150180D221349543120
:10513000FBF7CDF898F80010891E01EB810202EB15
:10514000C1020F4950180D220C49A831FBF7BFF8D6
:105150004EF042F92EF0DAFD0BB0BDE8F08F000002
:105160003016002071000020EA260020E0D3042041
:1051700038BE04202C8E04205491042054170020A3
:10518000A69204202DE9FC5F8B4617464FF03C0A9F
:1051900020254FF0000849E04FF000093FE00120D2
:1051A000C8EBC80101EB4101FE4A02EBC101C9EBAA
:1051B000C90202EB420201EB820108710020C8EB38
:1051C000C80101EB4101F74A02EBC101C9EBC90279
:1051D00002EB420201EB82018870C8EBC80101EBCF
:1051E0004101F04A02EBC101C9EBC90202EB4202E4
:1051F00001EB8201C870EC484078C8EBC80101EBB4
:105200004101E84A02EBC101C9EBC90202EB4202CB
:1052100001EB8201C87109F1010000F0FF09B9F149
:10522000020FBCDB08F1010000F0FF08B8F1040F29
:10523000B2DB0F20DB4908729BF808100BF1090064
:10524000415CD848027A093081540120D5498870E0
:105250004871002088710871022081F82100112115
:10526000D04880F8B010012180F8AA10112180F8F0
:105270000411012180F8FE10112180F8581101213C
:1052800080F85211112180F8AC11012180F8A6118B
:10529000102180F80012002190F8002200F2012075
:1052A00081540121BF4880F8FA11102180F854126E
:1052B000012190F8542200F255208154B94880F819
:1052C0004E123878012819D10D22B849B548D0308E
:1052D000FAF7FDFF0D22B549A931B548FAF7F7FFF6
:1052E0000D22B449B2485430FAF7F1FF0D22B1490A
:1052F000A931AF48A830FAF7EAFF36E03878801EC7
:1053000000EB800202EBC002A848823811180D227F
:10531000A7485438FAF7DBFF3878801E00EB80028C
:1053200002EBC002A148273011180D22A048FAF75D
:10533000CEFF3878801E00EB800202EBC0029D4851
:10534000823811180D229A485430FAF7C0FF387885
:10535000801E00EB800202EBC00296482730111835
:105360000D229348A830FAF7B2FF934C04F6C466B6
:105370004FF0500A4FF07F400116CDE90010B38F77
:10538000728F218FE08E07F061F8738FB4F836C00A
:10539000A3EB0C039AB2238F163399B2604619F02F
:1053A00047FF738FB4F836C0A3EB0C031B1F9AB2F0
:1053B000238F03EB450399B20CF1020398B2182333
:1053C0001AF0BCF9738FB4F836C0A3EB0C039AB291
:1053D000B38F5B1B99B2604619F02AFF77481AF029
:1053E00019FF738FB4F836C0A3EB0C039B1E9AB25F
:1053F000238F5B1C99B20CF1010398B215231AF0AC
:1054000079FA4FF0FF301AF005FF6C481AF002FFEE
:10541000738FB4F836C0A3EB0C039B1F9AB2238F93
:1054200003EB45035B1C99B20CF1030398B21623FE
:105430001AF060FA4FF0FF301AF0ECFE20255A48BF
:10544000407800285FD15D481AF0BEFE228F921C82
:1054500091B2E28E921C90B2012359A217F094FFF0
:10546000228F921C02EB450291B2E28E921C5244B2
:105470000F3290B2012355A217F086FF228F921CA3
:1054800002EB450291B2E28E921C0AEB4A031A44E7
:105490000F3290B201234FA217F076FF4FF07F40FA
:1054A0001AF092FE228F2A4491B2E28E921C90B2A0
:1054B00001234AA217F068FF228F921C05EB4503D7
:1054C0001A4491B2E28E921C90B2012345A217F0C9
:1054D0005BFF228F921C02EB850291B2E28E921C3E
:1054E00090B2012341A217F04FFF228F921C05EBCF
:1054F00085031A4491B2E28E921C90B201233DA220
:1055000017F042FFA7E0284840780128FAD12B483D
:105510001AF05AFE39481AF06FFE228F921C91B28F
:10552000E28E921C90B236A218F00CFF33481AF0AB
:1055300063FE228F921C02EB450291B2E28E921C16
:1055400052440F3290B232A218F0FCFE228F921C0D
:1055500002EB450291B2E28E921C0AEB4A031A4416
:105560000F3290B22BA218F0EDFE4FF07F401AF0F0
:105570002BFE29481AF040FE228F2A4491B2E28E77
:10558000921C90B225A218F0DDFE228F921C05EB32
:1055900045031A4491B2E28E921C90B220A218F0F8
:1055A000D1FE41E030160020E48D04202D9104202E
:1055B000541700207F92042074C40420FF0000FFD1
:1055C000B5A5CEBBD7AABBBB00000000CAE4B3F6AA
:1055D000D6B50000CFD4CABED6B50000B9A6C4DC8B
:1055E00000000000C9CFCFDED6B50000CFC2CFDEAD
:1055F000D6B50000B5A5CEBBA3BA0000900002202E
:10560000556E69742053657474696E6700000000FC
:1056100045750000446973007C00002045553A0040
:105620005570706572000000228F921C02EB85029B
:1056300091B2E28E921C90B208A218F083FE228FE3
:10564000921C05EB85031A4491B2E28E921C90B233
:1056500004A218F077FEBDE8FC9F00004C6F776550
:1056600072000000556E69743A0000002DE9F74F92
:1056700088B0824691463C274FF0200800200590D4
:1056800006900790FE49487008705422FD48099919
:10569000FAF71DFEFC4D05F6C46B4A4650460999C3
:1056A00003F008F899F80000012812D1F74890F8A3
:1056B0005F10F748027A093081540D22F549C7304E
:1056C000FAF705FE0D22F349A931F348FAF7FFFD79
:1056D00026E099F80000801EEC495531095CEC4841
:1056E000027A0930815499F80000801E00EB800294
:1056F00002EBC002E748823811180D22E648543800
:10570000FAF7E5FD99F80000801E00EB800202EB3D
:10571000C002E048273011180D22DF48FAF7D7FD04
:10572000502700BF4FF01808DC4800222B8F9B1C2D
:1057300003EB48039BB2CDE9012000930390E88E70
:105740003844503083B2288F801C404482B2E88EA7
:10575000384481B2CE4806F0B3FCD0490023288FEC
:10576000801C08EB880C604480B2CDE901310391C4
:105770000090288F801C00EB880082B2E88E3844AD
:10578000823083B2E88E384481B2C3487C3806F058
:1057900097FCC2490023288F801C08EB880C6044CA
:1057A00080B2CDE9013103910090E88E07EB470C00
:1057B00060446E3083B2288F801C00EB880082B278
:1057C000E88E07EB470C6044143881B2B2482838A1
:1057D00006F076FCB1490023BBF83C00001F80B204
:1057E000CDE9013103910090E88E38443C3083B21A
:1057F000BBF83800001F82B2E88E384481B2A64858
:105800002C3006F05DFCA5490023BBF83C00001FCE
:1058100080B2CDE9013103910090E88E07EB470C8F
:105820006044783083B2E88E07EB470C604481B265
:10583000BBF83800001F82B29748803006F040FC69
:105840004FF0200896481AF0D7FC2A8F921C02EBE2
:10585000880291B2EA8E921C3A440F3290B2914A79
:1058600018F070FD0024BEE00026B7E0012C49D1FD
:10587000C4EBC40101EB4101854A02EBC101C6EB57
:10588000C60202EB420201EB820101F1280005A9E8
:1058900024F0CEFA824903C9C4EBC40303EB4303EB
:1058A000DFF8ECC10CEBC303C6EBC60C0CEB4C0CE5
:1058B00003EB8C03CDE900011B8F9B1C9AB2C4EB58
:1058C000C40303EB4303DFF8C8C10CEBC303C6EB0F
:1058D000C60C0CEB4C0C03EB8C03DB8E9B1C99B2BF
:1058E000C4EBC40303EB4303DFF8A4C10CEBC30315
:1058F000C6EBC60C0CEB4C0C03EB8C0005AB17F0A5
:1059000075FB69E06148407898BBC4EBC40303EBC6
:105910004303DFF87CC10CEBC303C6EBC60C0CEBF6
:105920004C0C03EB8C031B8F9B1C9AB2C4EBC4037F
:1059300003EB4303DFF858C10CEBC303C6EBC60C03
:105940000CEB4C0C03EB8C03DB8E0F3399B2C4EBE6
:10595000C40303EB4303DFF838C10CEBC303C6EB0E
:10596000C60C0CEB4C0C03EB8C00012317F0DAFE99
:1059700032E0FFE7C4EBC40303EB4303DFF810C1DD
:105980000CEBC303C6EBC60C0CEB4C0C03EB8C030B
:105990001B8F9B1C9AB2C4EBC40303EB4303DFF8D9
:1059A000F0C00CEBC303C6EBC60C0CEB4C0C03EBCA
:1059B0008C03DB8E0F3399B2C4EBC40303EB4303B8
:1059C000DFF8CCC00CEBC303C6EBC60C0CEB4C0CE5
:1059D00003EB8C0018F0C2FE701CC6B2022EFFF65C
:1059E00045AF601CC4B2032CFFF63EAF002016F09A
:1059F00077FD824602200321214B224ACDE9001087
:105A00005046099920F026FFBAF1030F03D11C4834
:105A10000078022803D0BAF1010F7FF483AE37F08B
:105A200019FC02200321164B164ACDE900105046FE
:105A3000099920F00FFF4FF07F401AF0EBFB1A4856
:105A4000B0F8E0211948B0F83002101A463083B29D
:105A50001648B0F83002103881B240F27D220220A0
:105A600019F048FF4FF0FF301AF0D4FBBAF1030FE2
:105A700066D103480078022862D10148407817E0D7
:105A8000390000205222002074C40420E48D042038
:105A900038140020C79704205C150020303030C037
:105AA0007C0000200DB20508E0D3042038BE04209D
:105AB00000286BD13948D0F8D50000EE100A3748DD
:105AC000D0F8290100EE900A30EE600ADFED340ACA
:105AD000B4EEE00AF1EE10FA0CD2B7EE000A10EEC6
